:03000000021F9844
:0C1F9800787FE4F6D8FD75819C021FDF05
:1015F300045F000000004100630041009A0C4100B9
:101603009B4044009200000000440074000000006E
:10161300440078000000004400AF000000004400D4
:101623009F000000004400B7000000004200840057
:101633000142007200004100680041008E00420038
:10164300BC000042006900004100610841009D00A8
:101653004100BE000163000164004100B500410088
:10166300710041007C014100870A41009E00410056
:101673009C0A41008D004100900042006600004139
:10168300006200028A00000288000041006F0041EE
:1016930000B4004100910010780000000000000039
:1016A300000000000000000000017400017500014B
:1016B300770001760001730041006500410070006E
:1016C30042007D00004100B30041008F0041008CC7
:1016D300004A00A5000000000000000000004100D7
:0216E3006400A1
:102B26008E098F0A8B0B8A0C890DAF051DEF60216C
:102B3600050AE50AAE097002050914F5828E83E4DA
:102B460093FF780BE475F001120CBFEF120A1A809E
:022B5600D92282
:102E2800E4FDFCC3ED9FEC9E50070DBD00010C8036
:012E3800F2A7
:012E39002276
:102C7B008F828E83E4F562F561F560F55FAF82AE0E
:102C8B0083E4FCFDAB62AA61A960A85FC3120C27A9
:082C9B00500543BD1080E62244
:102E3A00E4FDFCC3ED9FEC9E50070DBD00010C8024
:012E4A00F295
:012E4B002264
:10000300758E5190FE917401F0A37410F075BD5F6D
:0700130090FEA07420F02212
:102D7B00E490FE80F0758901758DFA758BCB43A8B5
:0E2D8B0008438840758CCB758AEB4388102274
:102BEE0090FF10E054F04408F090FF02E054F044DF
:102BFE0002F0D28490FFA07420F0A37404F075CC80
:102C0E000675CEFF75CD98759E0275981043A81067
:012C1E002293
:102DD00043B40343B4807F147E00122E2875B502DD
:072DE00090FE9B744BF022F2
:102CA30090FF08E054F04408F090FF00E04488F0FF
:102CB300A3E04483F090FF03E054F04408F090FF56
:082CC30011E054F04403F0227B
:0B2E79008F99E59830E1FB5398FD2293
:102973008FB543B440E5B430E5FB53B4DF7F647EE9
:1029830000122E28E4FBFAF943B440E5B430E5FB2A
:1029930053B4DFE5B62BFBE5B73AFA7F147E00129A
:1029A3002E2809B910E275B502A9027F647E0012D0
:0429B3002E28AF011A
:0129B70022FD
:10173B007B017A0079A57D0A7F007E2F122B2690E4
:10174B0000A5E0FFE4FCFDFE90006B120C76900010
:10175B006B120C5E7808120C4B90006B120C76908F
:10176B00006B120C6A9000A6E0FFE4FCFDFE120A6F
:10177B00CB90006B120C7690006B120C5EE47BE846
:10178B007A03F9F8120AE690006B120C76E47F30BC
:10179B007E75FDFC90006B120C6AC3120C27401473
:1017AB007F007E097D3D7C0090006B120C6AD3128A
:1017BB000C27400A90006B120C8200009C4090009A
:1017CB00A7E09000BBF0700280079000BBE0B4FE76
:1017DB000374FFF09000A8E0FF900089E4F0A3EF02
:1017EB00F0E0F8E4F0E8900089F09000A9E0FF90B9
:1017FB000089E48FF0120AB5900089E0FEA3E0FFA8
:10180B004E6009D3EF9408EE94074009900089E4E9
:10181B00F0A37405F09000AAE0900087F090009080
:10182B00F09000ABE090007FF06006E0D394FF40B7
:10183B000690007F7401F09000ACE0F4540190002E
:10184B007CF07B017A0079647D017F807E2F122BE7
:0A185B0026900064E090008DF0225A
:10003E00E563600302073143B440E5B430E5FB539A
:10004E00B4DF85B70985B60A900072E475F0011227
:10005E000AB59000B7120C6AAE09AF0AE4FCFD12A5
:10006E000ACB9000B7120C769000A3E0FEA3E0FF3F
:10007E00C3950AEE9509500DC3E50A9FF50AE509E9
:10008E009EF509800BC3EF950AF50AEE9509F50961
:10009E00900078120C6AAE09AF0AE4FCFD120ACB8E
:1000AE00900078120C76900072E05401FEA3E04EA0
:1000BE007061D39000BDE094009000BCE0940040CD
:1000CE001790009CE094645042E02402F0E0D39438
:1000DE006440387464F08033900069E07004A3E0EB
:1000EE006401702F900087E0FF90009CE0FED39F8C
:1000FE004019EE94024004E024FEF090009CE0C310
:10010E009F5008900087E090009CF090009CE0FFCC
:10011E001227FCC3900072E09420500302077C4328
:10012E00BD10E4F0A3F090009DE004F090009F124B
:10013E000C5E9000B7120C6A120ACB90009F120C44
:10014E007690009DE0C394084037E4F090009F1233
:10015E000C5E7810120C3890009F120C7690009F57
:10016E00120C5E9000A3EE8FF0120AB59000A3E081
:10017E00C313F0A3E013F090009F120C8200000056
:10018E0000900061E0C394085005E004F0805690A2
:10019E0000BCE07002A3E0704C7F0A12297390003D
:1001AE0088EFF09000B6E0FE2402FDE433FCEFD3BE
:1001BE009DEC6480F8748098501E900088E02402B4
:1001CE00FDE433FCEED39DEC6480F8748098500807
:1001DE009000B6E0900088F0900088E09000B6F0B5
:1001EE00E4900061F0E4FFFEFDFC900074120C6AD6
:1001FE00C3120C277041900078120C5EEF2488FF1A
:10020E00EE3413FEE43DFDE43CFC900074120C76DB
:10021E00900084E07002A3E0701D7F407E427D0F4F
:10022E00FC900074120C6AD3120C27400A900074D2
:10023E00120C82000F4240900063E070169000781E
:10024E00120C5E900092120C76900080120C8200BE
:10025E00000001900080120C5E900078120C6A1261
:10026E000ACB900092120C6AC3120C2740030205AF
:10027E0007900080120C5E900092120C6A120ACB4C
:10028E00900078120C6AC3120C27400302050790E7
:10029E000063E004F09000AF120C5E900078120C38
:1002AE006A120ACB9000AF120C76900063E0FFFB4F
:1002BE00E4FAF9F89000AF120C5E120B71900092F6
:1002CE00120C76900092120C5E7803120C3890008D
:1002DE0080120C76E47F207E4EFDFC900080120C86
:1002EE006AC3120C27500A900080120C8200004E36
:1002FE0020E47F607EEAFDFC900080120C6AD3122F
:10030E000C27400A900080120C820000EA609000D8
:10031E0092120C5E900074120C6AD3120C27404C91
:10032E00900092120C6A900074120C5E120AD89011
:10033E0000B7120C767F807E387D017C009000B76E
:10034E00120C6AD3120C27400890009A7406F080A3
:10035E0021E47F407E9CFDFC9000B7120C6AD31204
:10036E000C2790009A40087409F0800690009A7449
:10037E000CF090009AE0FF900063E0C39F407B90EA
:10038E000074120C5E900092120C6AC3120C27506D
:10039E006990009BE09410500302051690009AE0BD
:1003AE00D394095008900092120C5E8044900092F3
:1003BE00120C5EEF24A0FFEE340FFEE43DFDE43C94
:1003CE00FC900074120C6AD3120C27402A90007411
:1003DE00120C5E900092120C6A120ACB90007412EC
:1003EE000C76900074120C5EE47B02FAF9F8120B94
:1003FE0071900074120C7602050790009BE0FF903E
:10040E000063E0C39F5003020516900074120C5E49
:10041E00EF24A0FFEE340FFEE43DFDE43CFC900023
:10042E0092120C6AD3120C2750030204F790007438
:10043E00120C6A900092120C5E120AD89000B7123B
:10044E000C767F007E127D7A7C00900092120C6AF0
:10045E00C3120C2740030204F77F807E1A7D067CB0
:10046E00009000B7120C6AC3120C27507C90009BB0
:10047E00E09410400280487FE07E937D047C0090E3
:10048E0000B7120C6AD3120C27400890009B741010
:10049E00F0801F7FF07E497D027C009000B7120C29
:1004AE006AD3120C2790009B4005740CF0800374E5
:1004BE0008F090009BE0FF900063E0C39F402A90FD
:1004CE000074120C5E900092120C6A120ACB90000D
:1004DE0074120C76900074120C5EE47B02FAF9F83A
:1004EE00120B71900074120C7690009BE0FF90003E
:1004FE0063E0C39F4012E48004E4900063F0900038
:10050E00AF120C820000000090008EE0D3940040E9
:10051E0066E014F0900096120C5EEF2470FFEE343D
:10052E0017FEE43DFDE43CFC900074120C6AD312FD
:10053E000C27500302069E900096120C5EEF249834
:10054E00FFEE343AFEE43DFDE43CFC900078120CE4
:10055E006AC3120C27400302069E900096120C5E90
:10056E00EF2470FFEE3417FEE43DFDE43CFC9000FA
:10057E0074120C7602069ED3900085E094009000D3
:10058E0084E09400407B74FFF5F0120AB5D390001E
:10059E0085E09400900084E0940040657F007E1218
:1005AE007D7A7C00900074120C6AD3120C27400CDA
:1005BE0090006B120C82000C3500804590006B127F
:1005CE000C5E900074120C6A120ACB9000B7120CDB
:1005DE00767F407E547D897C009000B7120C6AD3E2
:1005EE00120C27401C900074120C6AC374409BFFBF
:1005FE0074549AFE748999FDE498FC90006B120C69
:10060E007690006B120C5E900074120C6A120ACB7C
:10061E00900078120C6AD3120C2740749000BBE045
:10062E00FF900088E0D39F400FD3900085E09400A8
:10063E00900084E0940040589000BCE07002A3E06B
:10064E00700C900074120C5E900096120C76900056
:10065E00BCE4F0A304F07876F690007DE475F0012A
:10066E00120AB590007DE0FEA3E0FFE48F2C8E2BE6
:10067E00F52AF5297F74121F0290009B7408F0E48E
:10068E00900069F0A3F0788AF608F67888F608F6F6
:10069E009000A3E0FEA3E0FFE48F2C8E2BF52AF54D
:1006AE00297F75121F02900088E0FFE48F2CF52B36
:1006BE00F52AF5297F76121F02900074120C5E8FB8
:1006CE002C8E2B8D2A8C297F77121F029000781288
:1006DE000C5E8F2C8E2B8D2A8C297F78121F029008
:1006EE0000B7120C8200000000900078120C8200FD
:1006FE000000009000BCE0FEA3E0FFD39400EE9457
:10070E0000406B900089E0FCA3E0FDD3EF9DEE9CD2
:10071E00405CE49000BCF0A3F07563017876F67847
:10072E0073F622900069E4F0A304F0E4F563900000
:10073E0066F0A3F0900062F07FFAFE122C7B900020
:10074E009F120C8200000000E490009DF090009B30
:10075E007440F090008E7402F09000617406F0E424
:0E076E00900063F09000AF120C8200000000BB
:01077C00225A
:10230B00E4F50A9000B7120C8200000000E4F50916
:10231B0043B440E5B430E5FB53B4DF9000B7120C87
:10232B006AAFB6AEB7E4FCFD120ACB9000B7120C45
:10233B00760509E509B480D87F907E01122C7B903D
:10234B0000B7120C5E780B120C388F09E509D39489
:10235B000C400CE509948D5006E50A9414500A05BF
:09236B000AE50AD39450409B22BC
:012374002246
:102375009000B7120C8200000000E4F509E4F50CAA
:10238500F50D43B440E5B430E5FB53B4DF85B70A3A
:1023950085B60B9000B7120C6AAE0AAF0BE4FCFDD4
:1023A500120ACB9000B7120C76050DE50D700205EB
:1023B5000CB400CEE50CB420C943BD100509E509F0
:1023C500B408BA9000B7120C5E7810120C38900061
:0623D500A3EEF0A3EFF0FF
:0123DB0022DF
:1024FE00BF0105E4FCFD80377E007C017DFF120AE2
:10250E004E1C7D64120A60AC06AD07E412091A8FE8
:10251E002A8E298D288C27E4FFFEFD7C3FAB2AAA4C
:10252E0029A928A827120784120953AC06AD0790D3
:10253E00FF917406F075DA0175E30175E2FF8CE721
:07254E008DE675E10F7F002F
:012555002263
:1025AE00BF0105E4FCFD80377E007C017DFF120A31
:1025BE004E1C7D64120A60AC06AD07E412091A8F38
:1025CE002A8E298D288C27E4FFFEFD7C3FAB2AAA9C
:1025DE0029A928A827120784120953AC06AD07E4CF
:1025EE0090FF94F075DB0175EB0175EAFF8CED8DB4
:0525FE00EC75E90FFF80
:0126030022B4
:10260400BF0105E4FCFD80377E007C017DFF120ADA
:102614004E1C7D64120A60AC06AD07E412091A8FE1
:102624002A8E298D288C27E4FFFEFD7C3FAB2AAA45
:1026340029A928A827120784120953AC06AD0790CC
:10264400FF957401F0F5DBF5EB75EAFF8CEF8DEE89
:0526540075E90F7F0095
:01265900225E
:10255600BF0105E4FCFD80377E007C017DFF120A89
:102566004E1C7D64120A60AC06AD07E412091A8F90
:102576002A8E298D288C27E4FFFEFD7C3FAB2AAAF4
:1025860029A928A827120784120953AC06AD07907B
:10259600FF907403F075DA0175E30175E2FF8CE5CF
:0725A6008DE475E10F7F00D9
:0125AD00220B
:1027FC00BF0104E4FE80397E007C007DFF120A4E8E
:10280C00AC06AD07E412091AE4FBFA79C878421257
:10281C0008788F0E8E0D8D0C8C0BE4FFFEFD7C3F2B
:10282C00AB0EAA0DA90CA80B120784120953AE0704
:10283C0090FF9C7410F075DEFF8EDF75DD947F00C9
:01284C002269
:100F6500122DB7120003122CA37F641227FC122D39
:100F75007B122BEE122DD075BBAA90FEA774FFF045
:100F850053BBF7D2AF7FC87E00122C7B7F6412273C
:100F9500FC9000B57401F07F0A122973900088EF68
:100FA500F09000B6F0C2AF12173B90008DE004F050
:100FB5007F807E2F122CF27F107E27122E3A900012
:100FC5008DE0FF7D807C2F122CCB7F647E00122E5E
:100FD5003AD2AF12230B900087E0FF90009CF012ED
:100FE50027FC7F2C7E01122C7B1223759000B712F3
:100FF5000C820000000090008DE0C394034005E4DE
:10100500F0122D177875E6D39402502A18E664017C
:101015007024F608067F55122E797FAA122E79E4E0
:10102500FF122E797FB4122E79E4FF122E79122E3B
:10103500797FB3122E7943BD10E563700B90007371
:10104500E0541F70031211A190007CE0640160035D
:1010550002114BE564703DF563756401900087E00E
:1010650090009CF090009F120C8200000000E4901C
:10107500009DF090009B7440F090008E7402F090FB
:1010850000617406F0E4900063F09000AF120C82EA
:101095000000000012003ED390006AE0940090002A
:1010A50069E094004036900062E0B4012FE4F090CE
:1010B500006975F001120AB590007FE0FFC390004A
:1010C5006AE09F900069E094004011E4F0A3F0907D
:1010D5000070E064016005E4FF1227FCD39000BDB9
:1010E500E094009000BCE0940040127889E6640129
:1010F50018467009F608F675F001120AB57877E614
:1011050064016003020FFB18E6FF78736670030243
:101115000FFBA6079000BCE4F0A304F0E4F508E596
:1011250008C394084003020FFBE50825E02478F87E
:10113500E6FA08E6FB4A600A900071E0FD7F71124D
:101145002024050880D9E4F564900071E07007FF5C
:101155001227FC020FFB900090E0FF1227FCE4F53C
:1011650063900087E090009CF090009F120C820035
:10117500000000E490009DF090009B7440F090000A
:101185008E7402F09000617406F0E4900063F090B4
:0C11950000AF120C8200000000020FFBF3
:03001B00021C7F45
:101C7F00C0E0C0F0C083C082C0D075D000C000C02B
:101C8F0001C002C003C004C005C006C007AF62AEEA
:101C9F0061AD60AC5FEF2401FFE43EFEE43DFDE487
:101CAF003C8F628E618D60F55F900066E475F00188
:101CBF00120AB5900066E0FEA3E0FFE4FCFD7B6036
:101CCF007AEAF9F8D3120C11500C900066E4F0A3E5
:101CDF00F090006204F0788B06E618700106C37866
:101CEF008BE694E818E69403401278747601788AAC
:101CFF00760008760078887600087601D007D0063F
:101D0F00D005D004D003D002D001D000D0D0D082E3
:071D1F00D083D0F0D0E032C8
:030023000228E5CB
:1028E500C0E0C0F0C083C082C0D075D000C000C0B9
:0D28F50001C002C003C004C005C006C0073A
:0F290200E59830E00AAF9912229B5398FED2AFAE
:10291100D007D006D005D004D003D002D001D0001A
:0B292100D0D0D082D083D0F0D0E032C4
:03003B0002001AA6
:01001A0032B3
:102CF20053BBF7C280E5BB20E3F6D280C2AF75FDBD
:102D0200F075FC0F8EFA8FF975FDD275FC2D75FDED
:052D1200E175FC1E222A
:102CCB0053BBF7C280E5BB20E3F6D280C2AF8FFBCC
:102CDB0075FDF075FC0F8CFA8DF975FDB475FC4B19
:072CEB0075FDE175FC1E22DE
:0416E500026F000090
:10222A00EFC39430400CEFD39439500674D02FFF8B
:10223A008022EFC39441400CEFD394465006EF241A
:10224A00C9FF8010EFC39461400AEFD3946650042B
:10225A00EF24A9FFEF540FC454F0FFEDC3943040AC
:10226A000CEDD39439500674D02DFD801EEDC39425
:10227A00414008EDD394465002800CEDC39461406E
:10228A000AEDD394665004ED24A9FDED540F4207DC
:01229A002221
:0626B0008B168A17891841
:1026B600E4F51CF51BF51AF519E94A4B7005FFFE02
:1026C600FDFC22E4F51CF51BF51AF5197816E475E0
:1026D600F001120CBF1209D4601AE51C2401FFE4B4
:1026E600351BFEE4351AFDE435198F1C8E1B8D1A39
:0C26F600F51980D8AF1CAE1BAD1AAC1952
:0127020022B4
:062AB6008B418A428943B6
:102ABC008B478A488949E94A4B7004FBFAF922E5AD
:102ACC00461546AE45700215454E600F7847E475C5
:102ADC00F001120CBFED120A1A80E4AB41AA42A914
:012AEC0043A6
:012AED0022C6
:061A3E008B308A31893271
:101A44008B388A39893A85333B85343C85353DE981
:101A54004A4B6008E5354534453370077B007A000E
:101A6400790022D3853C83853D82E53A9582E53928
:101A740095834019E53D2537F9E53C3536FA8A83E7
:101A84008982D3E53A9582E53995834038E4F53E79
:101A9400F53FC3E53F9537E53E95365067AB3BAA26
:101AA4003CA93D853F82853E831209EDAB38AA39B6
:101AB400A93A853F82853E83120A2C053FE53F7093
:101AC400D1053E80CD85363E85373FD3E53F940032
:101AD400E53E9400402EAB3BAA3CA93DE53F24FFE4
:101AE400FFE53E34FFFE8F82F5831209EDAB38AA81
:101AF40039A93A8F828E83120A2CE53F153F70CBA9
:0A1B0400153E80C7AB30AA31A932AC
:011B0E0022B4
:1029B8008F6E8E6D8D6C8C6B7818120C38EF120A36
:1029C8001AAF6EAE6DAD6CAC6B7810120C3890000F
:1029D80001EF120A2CAF6EAE6DAD6CAC6B780812BD
:1029E8000C38900002EF120A2CE56EFF900003EFFE
:0329F800020A2CA4
:101E6A00E4F52DF52CF52BF52A1209D4FFE48F2D74
:101E7A00F52CF52BF52AAE2CAD2BAC2A7808120CD2
:101E8A004B8F2D8E2C8D2B8C2A9000011209EDFF81
:101E9A00E52D4FFFE52CFEE52BFDE52A8F2D8E2C37
:101EAA008D2BF52AFC7808120C4B8F2D8E2C8D2B3E
:101EBA008C2A9000021209EDFFE52D4FFFE52CFE5A
:101ECA00E52BFDE52A8F2D8E2C8D2BF52AFC780823
:101EDA00120C4B8F2D8E2C8D2B8C2A9000031209FD
:101EEA00EDFFE52D4FFFE52CFEE52BFDE52A8F2DB5
:071EFA008E2C8D2BF52AFC54
:011F010022BD
:062EA600900022E0FF2273
:0C2E6D00E4900022F0FDFC7F040227A985
:062EAC0090001FE0FF2270
:082703008F658B668A67896807
:10270B00E4FDFC900021E0B401037F0122AF05AE94
:10271B0004AD65120026AC06E4FD120026AC06E5FE
:10272B0069FD120026AC06AD6A120026AC06AD0799
:10273B00AB66AA67A96885692E856A2F122A80ACB9
:0A274B0006AD077F071227A97F01E2
:012755002261
:04284D008D25AB0723
:10285100E4FDFC900021E0B401037F0122AF05AE4D
:1028610004AD03120026AC067D01120026AC06E47D
:10287100FD120026AC067D01120026AC06AD07E56F
:10288100257003FD8006AF05AE047D01120026AC64
:0A28910006AD077F071227A97F019B
:01289B00221A
:02202400A9070A
:10202600E4FCF525F526900021E0B401037F0122AA
:102036007527557528AAE4F529752AB2F52B752C4E
:10204600078A2D8B2E892F753001F531753201EDFA
:102056007004F5338003753301E4F536F5377427DC
:102066002537F8E62CFC0537E53770020536640D92
:10207600453670EA8C3475250075260EE4F536F57E
:1020860037E5261526AE25700215254E60147427F1
:102096002537F8E6FF12001E0537E53770E30536EB
:0420A60080DF7F0157
:0120AA002213
:021BCD00A90766
:101BCF00E4FCF525F526900021E0B401037F012206
:101BDF007527557528AAE4F529752AB2F52B752CAA
:101BEF00078A2D8B2E892F753001F531753201ED56
:101BFF007004F533802EBD01057533018026BD02BB
:101C0F0005753302801EBD03057533038016BD04B1
:101C1F0005753304800EBD05057533058006BD06B9
:101C2F0003753306E4F536F53774272537F8E62CB8
:101C3F00FC0537E53770020536640D453670EA8CC2
:101C4F003475250075260EE4F536F537E52615268D
:101C5F00AE25700215254E601474272537F8E6FF60
:0F1C6F0012001E0537E5377002053680DF7F0152
:011C7E002243
:021F0200AB072B
:101F0400E4FDFC900021E0B401037F0122AF05AEA3
:101F140004AD03120026AC067D02120026AC06E4D2
:101F2400FD120026AC067D04120026C006C007AFD1
:101F34002CAE2BAD2AAC297818120C38AD07D0077B
:101F4400D006120026C006C007AF2CAE2BAD2AACBB
:101F5400297810120C38AD07D007D006120026C01D
:101F640006C007AF2CAE2BAD2AAC297808120C386A
:101F7400AD07D007D006120026AC06C007E52CFF3B
:101F8400E4AD07D007120026AC06AD077F07122781
:031F9400A97F0121
:011F97002227
:021B0F00AD0720
:101B1100E4FBF52FF530900021E0B401037F0122B1
:101B2100788C76550876AAE408F60876B208F608A5
:101B3100760AE52D08F608A62E08A605087602E421
:101B410008F6087604AF2CAE2BAD2AAC2978181212
:101B51000C387898A607AF2CAE2BAD2AAC2978109B
:101B6100120C387899A607AF2CAE2BAD2AAC297888
:101B710008120C38789AA607E52CFFE408A607F5A9
:101B810031F532748C2532F8E62BFB0532E53270E3
:101B91000205316410453170EA789CA603752F0067
:101BA100753011E4F531F532E5301530AE2F7002A4
:101BB100152F4E6014748C2532F8E6FF12001E05B5
:0B1BC10032E5327002053180DF7F0149
:011BCC0022F6
:082756008F238B248A258926BC
:10275E00E4FDFC900021E0B401037F0122AF05AE41
:10276E0004AD23120026AC067D03120026AC06E54E
:10277E0027FD120026AC06AD28120026AC06AD07CA
:10278E00AB24AA25A92685272E85282F122A80ACB0
:0A279E0006AD077F071227A97F018F
:0127A800220E
:0429FB008D25AB0774
:1029FF00E4FDFC900021E0B401037F0122AF05AE9E
:102A0F0004AD03120026AC067D04120026AC06E4CA
:102A1F00FD120026AC067D01120026AC06AD251274
:0D2A2F000026AC06AD077F071227A97F0126
:012A3C002277
:02195600AD07DB
:10195800E4F54FF550900021E0B401037F0122AF78
:1019680050AE4F1200268E4F8F507D051200268EE6
:101978004F8F50E4FD1200268E4F8F5074FFFFE505
:101988004DFEE54CFDE54BFCE47BFFFAF9F8C3128C
:101998000C2770117D01AF50AE4F1200268E4F8F6D
:1019A80050AD4E807E74FFFFFEE54CFDE54BFCE438
:1019B8007BFF7AFFF9F8C3120C2770047D0280368A
:1019C8007D04AF50AE4F1200268E4F8F50AF4EAEF3
:1019D8004DAD4CAC4B7818120C38AD07AF50AE4F2C
:1019E8001200268E4F8F50AF4EAE4DAD4CAC4B789B
:1019F80010120C38AD07AF50AE4F1200268E4F8F25
:101A080050AF4EAE4DAD4CAC4B7808120C38AD070C
:101A1800AF50AE4F1200268E4F8F50E54EFFE4AD0B
:101A280007AF501200268E4F8F50AD50AC4F7F0736
:051A38001227A97F0147
:011A3D002286
:082E84008C258D261209D4FFF4
:012E8C002223
:082E8D008C258D261209D4FFEB
:012E9500221A
:072E96008C288D29121E6A31
:012E9D002212
:10229B008F40D3855D83855E82E55B9582E55A959C
:1022AB00834015E55B955EFFE55A955DFEC3EF94A4
:1022BB001FEE648094805047C3855D83855E82E505
:1022CB005B9582E55A9583500DC3E55E955BFFE503
:1022DB005D955A4F6029C390001FE55B9582E55AC7
:1022EB009583400D7A007900755901755A00755B1D
:1022FB00007859E475F001120CBFE540120A1A225E
:1011A100E4F509F50AF50BF50CC3E570941FE56F3D
:1011B10094005024122D99EFD39400401B12292C36
:1011C1000570E570AC6F7002056F142423F582740D
:1011D100003CF583EFF080D1C3E5709407E56F948F
:1011E100005003021321C3E570950AFFE56F9509CD
:1011F100FEC3EF9407EE940050030212EA74232514
:101201000AF58274003509F583E06455600A050A20
:10121100E50A70D2050980CE7424250AF58274008E
:101221003509F583E064AA600A050AE50A70B70585
:101231000980B37425250AF58274003509F583E028
:101241006004740280387427250AF5827400350918
:10125100F583E0FE7428250AF58274003509F583CB
:10126100E07C002400FFEC3ECF2407F50CE43FF5C1
:101271000BD3E50C9426E50B940040097403250A71
:10128100F50AE4805DC3E570950AFFE56F9509FEF7
:10129100C3EF950CEE950B40507423250AF97400A9
:1012A1003509FA7B01E50C24FFFDE50B34FFFC1247
:1012B1002C4EE50A250CFDE509350BFC74222DF5B4
:1012C1008274003CF583E06F60097403250AF50A16
:1012D100E4800FAF0AAE09120CF5E50C250AF50AF8
:1012E100E50B3509F5090211E7C3E570950AF570BB
:1012F100E56F9509F56FD3E5709400E56F940040B3
:101301001F7423250AF974003509753301F53489F1
:1013110035856F368570377B017A007923121A3E45
:0113210022A9
:102DB700755901755A00755B00755C01755D007585
:092DC7005E0090001F74FFF02271
:1016E9004100C3004400BF0000000001560001533F
:1016F9000001520001510001550001540001570039
:10170900602A00C4010102040302040205036504FE
:10171900660267016802690271017201730174024C
:0E172900750276027702780279027A027B025C
:102D17007F55122E797FAA122E79E4FF122E797F22
:102D270004122E79E4FF122E79E4FF122E797F0325
:032D3700022E79F0
:03001E00022E7936
:10132200900000E0FD7F0112284D900071E0FD7FEA
:101332007112284D900087E0FFE48F2CF52BF52ADF
:10134200F5297F03121F029000BBE0FFB4FF05E402
:10135200F515801EEFB4C8057515028015EFB42887
:1013620005751503800CEFB414057515048003751B
:101372001505AD157F651229FB900089E0FEA3E0FB
:10138200FFE48F2C8E2BF52AF5297F66121F02901F
:10139200007CE0FD7F6712284D90007FE0FFE48F24
:1013A2002CF52BF52AF5297F68121F02E47B107AAF
:1013B20027F9F890006B120C5E120B71C374329F06
:1013C200FFE48F2CF52BF52AF5297F69121F02788D
:1013D20077E6FD7F7212284D900065E0FFE48F2CC6
:1013E200F52BF52AF5297F04121F02900070E0FD0B
:1013F2007F7312284D90007DE0FEA3E0FFE48F2C66
:101402008E2BF52AF5297F74121F029000A3E0FEAD
:10141200A3E0FFE48F2C8E2BF52AF5297F75121F8E
:1014220002900088E0FFE48F2CF52BF52AF5297F46
:1014320076121F02900074120C5E8F2C8E2B8D2A56
:101442008C297F77121F02900078120C5E8F2C8EEF
:101452002B8D2A8C297F78121F029000B3E0FFE4C3
:101462008F2CF52BF52AF5297F79121F0290008F18
:10147200E0FFE48F2CF52BF52AF5297F7A121F0263
:1014820090008CE0FFE48F2CF52BF52AF5297F7B69
:03149200021F0234
:102DE700122E84900000EFF0FD7F0112284DBF01E5
:062DF700037F01227F00B2
:012DFD0022B3
:102E1500122E8DAD077F021229FBBF01037F012210
:022E25007F002C
:012E27002288
:10212F00122E968F268E258D248C23055290008794
:10213F00E0FFE4FCFDFEAB26AA25A924A823C312C9
:10214F000C276032E4F552F527E52725E02478F8CF
:10215F00E6FA08E6FB4A601585262C85252B852493
:10216F002A8523298A2D8B2E7F03121B0F0527E526
:10217F0027C3940840D3AF26900087EFF0900090CC
:10218F00F0121865900087E0FFE48F2CF52BF52AED
:0F219F00F5297F03121F02BF01037F01227F007A
:0121AE00220E
:102B5800122E968F268E258D248C23900065EFF0FB
:102B6800122556121865900065E0FFE48F2CF52BAE
:102B7800F52AF5297F04121F02BF01037F01227F76
:012B8800004C
:012B89002229
:102E4C008C278D287F05122756BF01037F01227F17
:012E5C000075
:012E5D002252
:101D2600122E8D8F2305519000C3E0B52317E523AE
:101D3600640570359000BBE0FF900088E06F602975
:101D4600E4F5518024E4F551F524E52425E02478D2
:101D5600F8E6FA08E6FB4A6007AD237F65121BCD5D
:101D66000524E524C3940840E1E5231460101460BB
:101D76001514601A14601F1460242405702890003E
:101D8600BB74FFF080209000BB74C8F080189000F0
:101D9600BB7428F080109000BB7414F0800890008B
:101DA60088E09000BBF09000C3E523F01218659020
:101DB60000C3E0FD7F651229FBBF01037F01227F7F
:011DC600001C
:011DC70022F9
:1020AB00122E968F268E258D248C23055590008914
:1020BB00E0FEA3E0FFE4FCFDAB26AA25A924A823A0
:1020CB00C3120C276032E4F555F527E52725E024EC
:1020DB0078F8E6FA08E6FB4A601585262C85252B51
:1020EB0085242A8523298A2D8B2E7F66121B0F05AB
:1020FB0027E527C3940840D3900089E525F0A3E595
:10210B0026F0121865900089E0FEA3E0FFE48F2C07
:10211B008E2BF52AF5297F66121F02BF01037F0163
:03212B00227F0010
:01212E00228E
:10265A00122E848F23055390007CE065236024E4C6
:10266A00F553F524E52425E02478F8E6FA08E6FB94
:10267A004A6007AD237F671220240524E524C3940A
:10268A000840E1E52390007C7003F080037401F0B8
:10269A0012186590007CE0FD7F6712284DBF010388
:0526AA007F01227F000A
:0126AF002208
:1021AF00122E968F268E258D248C23055490007F1A
:1021BF00E0FFE4FCFDFEAB26AA25A924A823C31249
:1021CF000C276032E4F554F527E52725E02478F84D
:1021DF00E6FA08E6FB4A601585262C85252B852413
:1021EF002A8523298A2D8B2E7F68121B0F0527E541
:1021FF0027C3940840D390007FE526F0121865900E
:10220F00007FE0FFE48F2CF52BF52AF5297F68126C
:0A221F001F02BF01037F01227F00B0
:012229002292
:101DC800122E968F268E258D248C2305579000BFC2
:101DD800120C5EAB26AA25A924A823C3120C2760DF
:101DE80032E4F557F527E52725E02478F8E6FA08E0
:101DF800E6FB4A601585262C85252B85242A852314
:101E0800298A2D8B2E7F69121B0F0527E527C3947E
:101E18000840D3AF26AE25AD24AC239000BF120CEA
:101E280076C374329526FFE49525FEE49524FDE4F7
:101E38009523FCE47B107A27F9F8120AE690006BE8
:101E4800120C761218659000BF120C5E8F2C8E2B28
:101E58008D2A8C297F69121F02BF01037F01227F0F
:011E68000079
:011E69002256
:10244200122E848F230556900071E065236024E4E8
:10245200F556F524E52425E02478F8E6FA08E6FBAB
:102462004A6007AD237F711220240524E524C3941A
:102472000840E1E5237006900071F0801190007C25
:10248200E0B40104787676019000717401F0900056
:1024920071E0FD7F7112284DBF01037F01227F0091
:0124A2002217
:10289C00122E848F23E5237877666022E4F524E5F5
:1028AC002425E02478F8E6FA08E6FB4A6007AD2315
:1028BC007F721220240524E524C3940840E1E5230B
:1028CC0078777003F680027601AD237F7212284D63
:0828DC00BF01037F01227F0010
:0128E40022D1
:102DFE00122E84900070EFF0FD7F7312284DBF01EC
:062E0E00037F01227F009A
:012E1400229B
:102B8A00122E968F268E258D248C239000B3EFF07B
:102B9A001224FE1218659000B3E0FFE48F2CF52B87
:102BAA00F52AF5297F79121F02BF01037F01227FCF
:012BBA00001A
:012BBB0022F7
:102BBC00122E968F268E258D248C2390008FEFF06D
:102BCC001225AE12186590008FE0FFE48F2CF52BC8
:102BDC00F52AF5297F7A121F02BF01037F01227F9C
:012BEC0000E8
:012BED0022C5
:102C1F00122E968F268E258D248C2390008CEFF00C
:102C2F0012260490008CE0FFE48F2CF52BF52AF58B
:0E2C3F00297F7B121F02BF01037F01227F004D
:012C4D002264
:061495008B1D8A1E891F59
:10149B00EF120CCF14D301150202151203152204FF
:1014AB00153205154265155266156267157168157B
:1014BB008069158F71159E7215AD7315BC7915CB9F
:1014CB007A15DA7B000015EBAB1DAA1EA91FAD2107
:1014DB00AC20122DE78F22E522640160030215F088
:1014EB0090009EE004F0E0C3940550030215F0E475
:1014FB00F0122D170215F0AB1DAA1EA91FAD21ACC2
:10150B0020122E150215E7AB1DAA1EA91FAD21AC8B
:10151B002012212F0215E7AB1DAA1EA91FAD21AC6E
:10152B0020122B580215E7AB1DAA1EA91FAD21AC2B
:10153B0020122E4C0215E7AB1DAA1EA91FAD21AC24
:10154B0020121D260215E7AB1DAA1EA91FAD21AC4B
:10155B00201220AB0215E7AB1DAA1EA91FAD21ACB3
:10156B002012265A8076AB1DAA1EA91FAD21AC20D6
:10157B001221AF8067AB1DAA1EA91FAD21AC201293
:10158B001DC88058AB1DAA1EA91FAD21AC2012246B
:10159B00428049AB1DAA1EA91FAD21AC2012289C6D
:1015AB00803AAB1DAA1EA91FAD21AC20122DFE80C7
:1015BB002BAB1DAA1EA91FAD21AC20122B8A801CA0
:1015CB00AB1DAA1EA91FAD21AC20122BBC800DABED
:1015DB001DAA1EA91FAD21AC20122C1F8F2280002B
:0715EB00E490009EF0AF2226
:0115F20022D6
:032EB2007F152267
:101865007F007E2F122CF27F107E27122E3AE47B0A
:10187500E87A03F9F890006B120C5E120B71780888
:10188500120C387D007C2F122CCB7F647E00122E2B
:101895003AE47BE87A03F9F890006B120C5E120BC0
:1018A50071E47D017C2F122CCB7F647E00122E3AD1
:1018B5009000BBE0FF7D027C2F122CCB7F647E0065
:1018C500122E3A900089E0FF7D037C2F122CCB7FEE
:1018D500647E00122E3A900089A3E0FF7D047C2FE0
:1018E500122CCB7F647E00122E3A900087E0FF7D9C
:1018F500057C2F122CCB7F647E00122E3A90007F40
:10190500E0FF7D067C2F122CCB7F647E00122E3AE1
:1019150090007CE0F4FF7D077C2F122CCB7F647E4A
:1019250000122E3A900065E0FF7D087C2F122CCB2B
:101935007F647E00122E3A7F807E2F122CF27F105C
:101945007E27122E3A7D807C2FE4FF122CCBD2AF5E
:01195500226F
:0F2E5E003577676671726F3400312E302E300079
:0317370001580056
:1000260074482FF974003EFA7B01ED120A1A0FBFCD
:0300360000010EB8
:0100390022A4
:062A7A00AF157E007BFF9A
:0A2A80008E298F2A8B2B8A2C892DBA
:102A8A0074482FF974003EFA7B01852B33852C3468
:102A9A00852D35852E36852F37121A3EE52F252AA4
:0B2AAA00F52AE52E3529F529FEAF2A9C
:012AB50022FE
:102A3D008B2F8A3089318C328D33E94A4B602DE5ED
:102A4D003345326027E5331533AE32700215324E01
:102A5D00601AAB2FAA30A9311209D4FF12001E74CF
:0D2A6D00012531F531E43530F53080D922F6
:0A2C4E008B2F8A3089318C328D33D0
:102C5800E4FFFDFCC3ED9533EC95325015782FE475
:102C680075F001120CBF1209D42FFF0DBD00010C25
:022C780080E2F8
:012C7A002237
:0427A9008C2D8D2EB8
:1027AD009000427455F0A374AAF0E4A3F0A3EFF0E7
:1027BD00E52DA3F0E52EA3F02407F52EE4352DF538
:1027CD002D7B017A007942E52E24FFFDE52D34FFA6
:1027DD00FC122C4E7441252EF5827400352DF58397
:0F27ED00EFF07B017A007942AD2EAC2D022A3D30
:0423DC008C718D7201
:1023E00074022572F572E43571F5719000427455EE
:1023F000F0A374AAF0E4A3F0A3EFF0E571A3F0E575
:1024000072A3F0A374FFF0A3F074072572F572E4D1
:102410003571F5717B017A007942E57224FFFDE5A3
:102420007134FFFC122C4E74412572F58274003514
:1024300071F583EFF07B017A007942AD72AC7102E5
:022440002A3D33
:102D5B00E4FFE558700AFEFD120026755801800746
:102D6B007E007D01120026EFFD7C00E4FF0227A907
:102AEE00E4F5157BFF7A2E795E1226B08E2E8F2F8F
:102AFE007A2E795E122A7A8F157BFF7A2E796712DB
:102B0E0026B08E2E8F2F7A2E7967122A7A8F15EF96
:082B1E00FD7C007F010227A9E4
:082E9E00E4FDFC7F020227A9FC
:022D3A008F1CEC
:102D3C00122EB2E4FEEEC39F501275F002EE90001C
:0E2D4C00C4120CB3E0651C60030E80E9AF06F4
:012D5A002256
:0624A3008B158A16891753
:1024A9001209D4F5189000011209EDF519900002EE
:1024B9001209ED751B00F51A9000031209ED251B91
:1024C900F51BE4351AF51AAF18122D3A75F002EF1B
:1024D9009000C5120CB3E0651960037F0022AB15AB
:1024E900E5172404F9E43516FA851A20851B21AF6E
:0424F900181214950C
:0124FD0022BC
:040CF5008E0D8F0EC3
:100CF90074262FF58274003EF583E0FF120CCF0DA8
:100D090024000D27010D2A020D2D030D46040D4D5A
:100D1900060F61080DE8B400000F64022D5B022A7A
:100D2900EE022E9E7429250EF5827400350DF58389
:100D3900E090001FF0E4FDFC7F030227A990002248
:100D49007401F0227427250EF5827400350DF583A0
:100D5900E0751400F5137428250EF5827400350D1D
:100D6900F583E02514F514E43513F513E4F511F5CD
:100D790012C3E5129514E51195134003020F64E5BA
:100D89000E2512FDE50D3511FC742B2DF58274002D
:100D99003CF583E0751000F50F742C2DF582740075
:100DA9003CF583E02510F510E4350FF50F7429257E
:100DB9000EF97400350DFA7B01E92512F9EA3511AE
:100DC900FA1224A3BF0103121865E5102404FFE4F5
:100DD900350FFEEF2512F512EE3511F511809274DB
:100DE90027250EF5827400350DF583E0751400F59D
:100DF900137428250EF5827400350DF583E025144A
:100E0900F514E43513F513742A250EF582740035AB
:100E19000DF583E0F8E47979F7E819F7742B250ED5
:100E2900F5827400350DF583E0787926F618E436F5
:100E3900F6742C250EF5827400350DF583E0F8E47F
:100E4900797BF7E819F7742D250EF5827400350DB5
:100E5900F583E0787B26F618E436F6742E250EF530
:100E6900827400350DF583E0F8E4797DF7E819F728
:100E7900742F250EF5827400350DF583E0787D26F3
:100E8900F618E436F67430250EF5827400350DF542
:100E990083E0F8E4797FF7E819F77431250EF582D4
:100EA9007400350DF583E0787F26F618E436F6747C
:100EB90032250EF5827400350DF583E0F8E4798169
:100EC900F7E819F77433250EF5827400350DF583AB
:100ED900E0788126F618E436F67434250EF5827426
:100EE90000350DF583E0F8E47983F7E819F77435EF
:100EF900250EF5827400350DF583E0788326F61802
:100F0900E436F67436250EF5827400350DF583E066
:100F1900F8E47985F7E819F77437250EF582740036
:100F2900350DF583E0788526F618E436F67438250C
:100F39000EF5827400350DF583E0F8E47987F7E85A
:100F490019F77439250EF5827400350DF583E078AB
:0B0F59008726F618E436F62212132259
:010F6400226A
:102D9900E55C855D83855E826559700AE55B6582C0
:0E2DA9007004E55A658360037F01227F0022DB
:10292C00AB5CAA5DA95EE559855A83855B82655CC3
:10293C00700AE55E65827004E55D65836028C3906E
:10294C00001FE55E9582E55D9583400D7A00790068
:10295C00755C01755D00755E00785CE475F00112C4
:06296C000CBF1209D4FFAC
:012972002242
:10077D000209BFE86480F8E933E83360110460F0E2
:10078D00ED33EC337009E8FCE9FDEAFEEBFF2204E2
:10079D0060DED3EB9FEA9EE99DE8C2E78CF0C2F7DD
:1007AD0095F0400CE8CCF8E9CDF9EACEFAEBCFFBA9
:1007BD0012098A85D0F05804700320D5B3E804706F
:1007CD00075002B2D50209C992D5EC0460F7E4CC0A
:1007DD00C0E0C398F8603B94186008400DD0E0FB72
:1007ED000209A1E4FBFAC9FC8028E830E406E4C95B
:1007FD00FBE4CAFCE830E305E4C9CACBFCE85407C6
:10080D006010F8C3E913F9EA13FAEB13FBEC13FCD0
:10081D00D8F130F52FC3E49CFCEF9BFFEE9AFEED73
:10082D0099FDD0E0FBEF4E4D4C701222DB03020917
:10083D00C6EC2CFCEF33FFEE33FEED33FDED30E770
:10084D00EB0209A1EF2BFFEE3AFEED39FDD0E0FBF7
:10085D0050130BBB00030209C9ED13FDEE13FEEFA0
:08086D0013FFEC13FC0209A1CA
:100875000209C9EC5D046005E8590470030209BF6B
:1008850012098A580460F6EC4860F2EC7004FDFE2B
:10089500FF22C860DB2481C85009C3986002500656
:1008A5000209C69850CAF582E9294B4A7005AB8200
:1008B5000209B575F0007C1A7880C3EF9BEE9AEDBE
:1008C50099400DC3EF9BFFEE9AFEED99FDE842F0CE
:1008D500DC23ACF0D0E0FFD0E0FED0E0FDAB822021
:1008E500E7101BEB60BAEC2CFCEF33FFEE33FEEDAB
:1008F50033FD0209A1E803F830E705C0F075F00003
:10090500EF2FFFEE33FEED33FD40B830E7C280AA8E
:1009150075F020800E75F010800575F0087D007E5D
:10092500007F003392D530D503120C03EC33401011
:10093500EF33FFEE33FEED33FDEC33FCD5F0ED2266
:0E094500E5F0247EA2D513CC92E7CDCEFF22A2
:10095300EDD2E7CD33EC3392D524814006E4FFFE9C
:10096300FDFC22FCE4CFCECDCC24E0501174FF80FB
:10097300EDC3CC13CCCD13CDCE13CECF13CF047098
:07098300F030D5DE020C0389
:10098A00E9D2E7C933E833F892D5EDD2E7CD33ECB3
:07099A0033FC5002B2D5222C
:1009A100EC30E7100FBF000C0EBE00080DBD0004B7
:1009B1000BEB6014A2D5EB13FCED92E7FD2274FF63
:1009C100FCFDFEFF22E480F8A2D574FF13FC7D80BC
:0309D100E480EFD0
:101FA400020F65E493A3F8E493A34003F68001F2DF
:101FB40008DFF48029E493A3F85407240CC8C3333E
:101FC400C4540F4420C8834004F456800146F6DF0D
:101FD400E4800B01020408102040809015F3E47E95
:101FE400019360BCA3FF543F30E509541FFEE49302
:101FF400A360010ECF54C025E060A840B8E493A3C9
:10200400FAE493A3F8E493A3C8C582C8CAC583CAF3
:10201400F0A3C8C582C8CAC583CADFE9DEE780BEAB
:01173A0000AE
:1009D400BB010689828A83E0225002E722BBFE0221
:0909E400E32289828A83E4932254
:1009ED00BB010CE58229F582E5833AF583E02250BF
:1009FD0006E92582F8E622BBFE06E92582F8E22209
:0D0A0D00E58229F582E5833AF583E4932222
:100A1A00BB010689828A83F0225002F722BBFE01BB
:020A2A00F322B5
:100A2C00F8BB010DE58229F582E5833AF583E8F000
:100A3C00225006E92582C8F622BBFE05E92582C8AC
:020A4C00F22294
:100A4E00EF8DF0A4A8F0CF8CF0A428CE8DF0A42EBC
:020A5E00FE2276
:100A6000BC000BBE0029EF8DF084FFADF022E4CC7A
:100A7000F875F008EF2FFFEE33FEEC33FCEE9DEC43
:100A8000984005FCEE9DFE0FD5F0E9E4CEFD22ED89
:100A9000F8F5F0EE8420D21CFEADF075F008EF2FD3
:100AA000FFED33FD4007985006D5F0F222C398FDC4
:050AB0000FD5F0EA2261
:100AB500C5F0F8A3E028F0C5F0F8E58215827002CC
:060AC5001583E038F02269
:0D0ACB00EF2BFFEE3AFEED39FDEC38FC227A
:0E0AD800C3EF9BFFEE9AFEED99FDEC98FC2219
:100AE600E88FF0A4CC8BF0A42CFCE98EF0A42CFCAF
:100AF6008AF0EDA42CFCEA8EF0A4CDA8F08BF0A42D
:100B06002DCC3825F0FDE98FF0A42CCD35F0FCEB8B
:100B16008EF0A4FEA9F0EB8FF0A4CFC5F02ECD3950
:0F0B2600FEE43CFCEAA42DCE35F0FDE43CFC22BD
:100B350075F008758200EF2FFFEE33FECD33CDCC77
:100B450033CCC58233C5829BED9AEC99E5829840FA
:100B55000CF582EE9BFEED9AFDEC99FC0FD5F0D6D7
:100B6500E4CEFBE4CDFAE4CCF9A88222B800C1B901
:100B75000059BA002DEC8BF084CFCECDFCE5F0CB3F
:100B8500F97818EF2FFFEE33FEED33FDEC33FCEB78
:100B950033FB10D703994004EB99FB0FD8E5E4F933
:100BA500FA227818EF2FFFEE33FEED33FDEC33FC20
:100BB500C933C910D7059BE99A4007EC9BFCE99A14
:100BC500F90FD8E0E4C9FAE4CCFB2275F010EF2F59
:100BD500FFEE33FEED33FDCC33CCC833C810D70759
:100BE5009BEC9AE899400AED9BFDEC9AFCE899F894
:0E0BF5000FD5F0DAE4CDFBE4CCFAE4C8F92227
:0E0C0300C3E49FFFE49EFEE49DFDE49CFC2202
:100C1100EB9FF5F0EA9E42F0E99D42F0EC6480C85A
:060C210064809845F022FA
:100C2700EB9FF5F0EA9E42F0E99D42F0E89C45F023
:010C3700229A
:100C3800E8600FECC313FCED13FDEE13FEEF13FF9A
:030C4800D8F122BE
:100C4B00E8600FEFC333FFEE33FEED33FDEC33FC07
:030C5B00D8F122AB
:0C0C5E00E0FCA3E0FDA3E0FEA3E0FF2209
:0C0C6A00E0F8A3E0F9A3E0FAA3E0FB220D
:0C0C7600ECF0A3EDF0A3EEF0A3EFF022F1
:100C8200A8828583F0D083D082120C99120C99121B
:100C92000C99120C99E473E493A3C583C5F0C58340
:100CA200C8C582C8F0A3C583C5F0C583C8C582C8BC
:010CB200221F
:0C0CB300A42582F582E5F03583F583224C
:100CBF00FAE6FB0808E6F925F0F618E6CA3AF62236
:100CCF00D083D082F8E4937012740193700DA3A3B4
:100CDF0093F8740193F5828883E4737402936860C8
:060CEF00EFA3A3A380DFC8
:00000001FF
