:0300000002203E9D
:0C203E00787FE4F6D8FD75819C022085B7
:10168800045F00000000410063004100980C410025
:1016980099404400900000000044007400000000DD
:1016A800440078000000004400AD00000000440041
:1016B8009D000000004400B40000000042008400C7
:1016C8000142007200004100680041008D004200A4
:1016D800B9000042006900004100610841009B0018
:1016E8004100BB000163000164004100B2004100F9
:1016F800710041007C014100870A41009C004100C3
:101708009A0A41008C0041008E00420066000041A8
:10171800006200028A00000288000041006F004158
:1017280000B10041008F00107800000000000000A8
:1017380000000000000000000001740001750001B5
:1017480077000176000173004100650041007000D8
:1017580042007D00004A00A30000000000000000D5
:06176800000041006400D6
:102A57008E098F0A8B0B8A0C890DAF051DEF602637
:102A6700050AE50AAE097002050914F5828E83E4AA
:102A770093FFAB0B050DE50DAA0C7002050C14F9BD
:072A8700EF120B7580D42251
:102D2C00E4FDFCC3ED9FEC9E50070DBD00010C8033
:012D3C00F2A4
:012D3D002273
:102B88008F828E83E4F562F561F560F55FAF82AE02
:102B980083E4FCFDAB62AA61A960A85FC3120CFCC8
:082BA800500543BD1080E62238
:102D3E00E4FDFCC3ED9FEC9E50070DBD00010C8021
:012D4E00F292
:012D4F002261
:10000300758E5190FE917401F0A37410F075BD5F6D
:0700130090FEA07420F02212
:102C6500E490FE80F0758901758DFA758BCB43A8CC
:0E2C750008438840758CCB758AEB438810228B
:102B280090FF10E054F04408F090FF02E054F044A5
:102B380002F0D28490FFA07420F0A37404F075CC46
:102B48000675CEFF75CD98759E0275981043A8102E
:012B5800225A
:102CD40043B40343B4807F147E00122D2C75B501D8
:072CE40090FE9B744BF022EF
:102CA10090FF08E04488F090FF00E0540F4430F0BA
:0A2CB10090FF11E054F04403F022FC
:0B2D7D008F99E59830E1FB5398FD2290
:10285D008FB543B440E5B430E5FB53B4DF7F647E00
:10286D0000122D2CE4FBFAF943B440E5B430E5FB3E
:10287D0053B4DFE5B62BFBE5B73AFA7F147E0012B1
:10288D002D2C09B910E275B501A9027F647E0012E5
:04289D002D2CAF012E
:0128A1002214
:1013E2007B017A0079A37D0A7F007E2F122A579013
:1013F20000A3E0FFE4FCFDFE90006B120D339000B1
:101402006BE0FCA3E0FDA3E0FEA3E0FF7808120D71
:101412002090006B120D3390006BE0F8A3E0F9A36B
:10142200E0FAA3E0FB9000A4E0FFE4FCFDFEEB2F5A
:10143200FFEE3AFEED39FDEC38FC90006B120D33F5
:1014420090006BE0FCA3E0FDA3E0FEA3E0FFE47BE1
:10145200E87A03F9F8120BBB90006B120D33E47FAC
:10146200307E75FDFC90006BE0F8A3E0F9A3E0FA92
:10147200A3E0FBC3120CFC40177F007E097D3D7C7C
:101482000090006BE0F8A3A3A3E0D3120CFC400A87
:1014920090006B120D3F00009C409000A5E0900070
:1014A200B8F0700280079000B8E0B4FE0374FFF059
:1014B2009000A6E0FF900089E4F0A3EFF0E0F8E4EA
:1014C200F0E8900089F09000A7E0FF90008AE02FFA
:1014D200F0900089E03400F0E0FEA3E0FF4E6009E6
:1014E200D3EF9408EE94074009900089E4F0A374C6
:1014F20005F09000A8E0900087F090008EF0900038
:10150200A9E090007FF06006E0D394FF40069000CF
:101512007F7401F09000AAE0540190007CF07B01FE
:101522007A0079647D017F807E2F122A57900064B1
:06153200E090008CF022A5
:10003E00E563600302098443B440E5B430E5FB5345
:10004E00B4DF85B70985B60A900073E004F0700638
:10005E00900072E004F09000B4E0F8A3E0F9A3E0A1
:10006E00FAA3E0FBE4FCFDEB250AFFEA3509FEED01
:10007E0039FDEC38FC9000B4120D339000A1E0FE77
:10008E00A3E0FFC3950AEE9509500DC3E50A9FF54F
:10009E000AE5099EF509800BC3EF950AF50AEE9560
:1000AE0009F509900078E0F8A3E0F9A3E0FAA3E0DF
:1000BE00FBE4FCFDEB250AFFEA3509FEED39FDEC0C
:1000CE0038FC900078120D33900072E05401FEA3BC
:1000DE00E04E7061D39000BAE094009000B9E094C5
:1000EE0000401790009AE094645042E02402F0E041
:1000FE00D3946440387464F08033900069E07004E7
:10010E00A3E06401702F900087E0FF90009AE0FE5C
:10011E00D39F4019EE94024004E024FEF090009A22
:10012E00E0C39F5008900087E090009AF090009AEC
:10013E00E0FF122B59C3900072E094205003020985
:10014E00CF43BD10E4F0A3F090009BE004F09000CC
:10015E009DE0FCA3E0FDA3E0FEA3E0FF9000B4E071
:10016E00F8A3E0F9A3E0FAA3E0FBEF2BFFEE3AFED3
:10017E00ED39FDEC38FC90009D120D3390009BE0A4
:10018E00C394084043E4F090009DE0FCA3E0FDA37F
:10019E00E0FEA3E0FF7810120D0D90009D120D33BE
:1001AE0090009DA3A3E0FEA3E0FF9000A2E02FF03D
:1001BE009000A1E03EF0E0C313F0A3E013F0900036
:1001CE009D120D3F00000000900061E0C3940850A6
:1001DE0005E004F080569000B9E07002A3E0704C88
:1001EE007F0A12285D900088EFF09000B3E0FE24A5
:1001FE0002FDE433FCEFD39DEC6480F874809850DC
:10020E001E900088E02402FDE433FCEED39DEC64E6
:10021E0080F874809850089000B3E0900088F090B9
:10022E000088E09000B3F0E4900061F0E4FFFEFD82
:10023E00FC900074E0F8A3E0F9A3E0FAA3E0FBC39E
:10024E00120CFC704F900078E0FCA3E0FDA3E0FEE2
:10025E00A3E02488FFEE3413FEE43DFDE43CFC9065
:10026E000074120D33900084E07002A3E070257FBD
:10027E00407E427D0FFC900074E0F8A3E0F9A3E00D
:10028E00FAA3E0FBD3120CFC400A900074120D3F4F
:10029E00000F4240900063E0701E900078E0FCA3D7
:1002AE00E0FDA3E0FEA3E0FF900090120D3390005E
:1002BE0080120D3F00000001900080E0FCA3E0FDE5
:1002CE00A3E0FEA3E0FF900078E0F8A3E0F9A3E03E
:1002DE00FAA3E02FFFEA3EFEE93DFDE83CFC90006C
:1002EE0090E0F8A3E0F9A3E0FAA3E0FBC3120CFC44
:1002FE0040030206C4900080E0FCA3E0FDA3E0FEF4
:10030E00A3E0FF900090E0F8A3A3A3E02FFFEA3E46
:10031E00FEE93DFDE83CFC900078E0F8A3E0F9A38F
:10032E00E0FAA3E0FBC3120CFC40030206C49000EB
:10033E0063E004F09000ADE0FCA3E0FDA3E0FEA3BB
:10034E00E0FF900078E0F8EF2BFFEE3AFEED39FD7E
:10035E00EC38FC9000AD120D33900063E0FBE4FA34
:10036E00F9F89000ADE0FCA3E0FDA3E0FEA3E0FFF2
:10037E00120C46900090120D33900090E0FCA3E01A
:10038E00FDA3E0FEA3E0FF7803120D0D9000801296
:10039E000D33E47F207E4EFDFC900080E0F8A3E05C
:1003AE00F9A3E0FAA3E0FBC3120CFC500A90008004
:1003BE00120D3F00004E20E47F607EEAFDFC9000AF
:1003CE0080E0F8A3E0F9A3E0FAA3E0FBD3120CFC63
:1003DE00400A900080120D3F0000EA60900090E00D
:1003EE00FCA3E0FDA3E0FEA3E0FF900074E0F8A301
:1003FE00E0F9A3E0FAA3E0FBD3120CFC40739000EB
:10040E0090E0F8A3E0F9A3E0FAA3E0FB900074E01B
:10041E00FCA3E0FDA3E0FEA3E09BFFEE9AFEED99A8
:10042E00FDEC98FC9000B4120D337F807E387D0178
:10043E007C009000B4E0F8A3E0F9A3E0FAA3E0FB9F
:10044E00D3120CFC40089000987406F08029E47FCB
:10045E00407E9CFDFC9000B4E0F8A3E0F9A3E0FA26
:10046E00A3E0FBD3120CFC90009840087409F080B6
:10047E0006900098740CF0900098E0FF900063E0F6
:10048E00C39F500302055C900074E0FCA3E0FDA343
:10049E00E0FEA3E0FF900090E0F8A3E0F9A3E0FAFD
:1004AE00A3E0FB120CFC400302055C900099E09463
:1004BE001050030206D3900098E0D3940950109088
:1004CE000090E0FCA3E0FDA3E0FEA3E0FF807690A9
:1004DE000090E0FCA3E0FDA3E0FEA3E024A0FFEE6D
:1004EE00340FFEE43DFDE43CFC900074E0F8A3E024
:1004FE00F9A3E0FAA3E0FBD3120CFC50030206C4EE
:10050E00900074E0FCA3E0FDA3E0FEA3E0FF9000EA
:10051E0090E0F8A3E0F9A3E0FAA3E0FBEF2BFFEEE7
:10052E003AFEED39FDEC38FC900074120D3390005C
:10053E0074E0FCA3E0FDA3E0FEA3E0FFE47B02FA7F
:10054E00F9F8120C46900074120D330206C4900096
:10055E0099E0FF900063E0C39F50030206D3900022
:10056E0074E0FCA3E0FDA3E0FEA3E024A0FFEE34C4
:10057E000FFEE43DFDE43CFC900090E0F8A3E0F9B2
:10058E00A3E0FAA3E0FBD3120CFC50030206B490D6
:10059E000074E0F8A3E0F9A3E0FAA3E0FB9000906A
:1005AE00E0FCA3E0FDA3E0FEA3E09BFFEE9AFEEDD0
:1005BE0099FDEC98FC9000B4120D337F007E127DF5
:1005CE007A7C00900090E0F8A3E0F9A3E0FAA3E0B3
:1005DE00FBC3120CFC40030206B47F807E1A7D061C
:1005EE007C009000B4E0F8A3E0F9A3E0FAA3E0FBEE
:1005FE00C3120CFC40030206B4900099E094104024
:10060E000280587FE07E937D047C009000B4E0F879
:10061E00A3E0F9A3E0FAA3E0FBD3120CFC40089090
:10062E0000997410F080277FF07E497D027C009047
:10063E0000B4E0F8A3E0F9A3E0FAA3E0FBD3120CB8
:10064E00FC9000994005740CF080037408F0900043
:10065E0099E0FF900063E0C39F404B900074E0FC74
:10066E00A3E0FDA3E0FEA3E0FF900090E0F8A3E07E
:10067E00F9A3E0FAA3E0FBEF2BFFEE3AFEED39FD16
:10068E00EC38FC900074120D33900074E0FCA3E083
:10069E00FDA3E0FEA3E0FFE47B02FAF9F8120C469C
:1006AE00900074120D33900099E0FF900063E0C348
:1006BE009F4012E48004E4900063F09000AD120DB0
:1006CE003F0000000090008DE0D39400500302071D
:1006DE0067E014F0900094E0FCA3E0FDA3E0FEA31D
:1006EE00E02470FFEE3417FEE43DFDE43CFC900088
:1006FE0074E0F8A3E0F9A3E0FAA3E0FBD3120CFC3C
:10070E0050030208E3900094E0FCA3E0FDA3E0FE9A
:10071E00A3E02498FFEE343AFEE43DFDE43CFC9069
:10072E000078E0F8A3E0F9A3E0FAA3E0FBC3120C13
:10073E00FC40030208E3900094E0FCA3E0FDA3E07C
:10074E00FEA3E02470FFEE3417FEE43DFDE43CFC16
:10075E00900074120D330208E3D3900085E09400EC
:10076E00900084E094005003020828A3E024FFF0D8
:10077E00900084E034FFF0D3A3E09400900084E076
:10078E00940050030208287F007E127D7A7C009030
:10079E000074E0F8A3E0F9A3E0FAA3E0FBD3120C97
:1007AE00FC400C90006B120D3F000C3500806B90DE
:1007BE00006BE0FCA3E0FDA3E0FEA3E0FF9000745D
:1007CE00E0F8A3E0F9A3E0FAA3E02FFFEA3EFEE98A
:1007DE003DFDE83CFC9000B4120D337F407E547D0D
:1007EE00897C009000B4E0F8A3E0F9A3E0FAA3E05E
:1007FE00FBD3120CFC4023900074E0F8A3E0F9A3A5
:10080E00E0FAA3E0FB74409BFF74549AFE7489993E
:10081E00FDE498FC90006B120D3390006BE0FCA38E
:10082E00E0FDA3E0FEA3E0FF900074E0F8A3E0F982
:10083E00A3E0FAA3E02FFFEA3EFEE93DFDE83CFC13
:10084E00A3E0F8A3E0F9A3E0FAA3E0FBD3120CFCBB
:10085E0050030208E39000B8E0FF900088E0D39FB9
:10086E00400FD3900085E09400900084E094004007
:10087E00649000B9E07002A3E07014900074E0FC84
:10088E00A3E0FDA3E0FEA3E0FF900094120D3390D1
:10089E0000B9E4F0A304F07876F690007EE004F060
:1008AE00700690007DE004F090007DE0FEA3E0FF76
:1008BE00E48F2C8E2BF52AF5297F74121FA8900039
:1008CE00997408F0E4900069F0A3F0788AF608F6BF
:1008DE007888F608F69000A1E0FEA3E0FFE48F2CE6
:1008EE008E2BF52AF5297F75121FA8900088E0FF40
:1008FE00E48F2CF52BF52AF5297F76121FA8900090
:10090E0074E0FCA3E0FDA3E0FEA3E0F52C8E2B8D9E
:10091E002A8C297F77121FA8900078E0FCA3E0FDB7
:10092E00A3E0FEA3E0F52C8E2B8D2A8C297F781266
:10093E001FA89000B4120D3F000000009000781226
:10094E000D3F000000009000B9E0FEA3E0FFD3943D
:10095E0000EE9400406B900089E0FCA3E0FDD3EF25
:10096E009DEE9C405CE49000B9F0A3F075630178B5
:10097E0076F67873F622900069E4F0A304F0E4F5BD
:10098E0063900066F0A3F0900062F07FFAFE122BE7
:10099E008890009D120D3F00000000E490009BF037
:1009AE009000997440F090008D7402F09000617484
:1009BE0006F0E4900063F09000AD120D3F000000D1
:0109CE000028
:0109CF002205
:1021D500E4F50A9000B4120D3F00000000E4F50993
:1021E50043B440E5B430E5FB53B4DF9000B4E0F808
:1021F500A3E0F9A3E0FAA3E0FBAFB6AEB7E4FCFDBC
:10220500EB2FFFEA3EFEED39FDEC38FC9000B412F1
:102215000D330509E509B480C77F907E01122B882F
:102225009000B4E0FCA3E0FDA3E0FEA3E0FF780B83
:10223500120D0D8F09E509D3940C400CE509948D19
:102245005006E50A9414500A050AE50AD39450404D
:022255008222E3
:012257002264
:1022D8009000B4120D3F00000000E4F509E4F50C8D
:1022E800F50D43B440E5B430E5FB53B4DF85B70AD8
:1022F80085B60B9000B4E0F8A3E0F9A3E0FAA3E0F8
:10230800FBE4FCFDEB250BFFEA350AFEED39FDEC9D
:1023180038FC9000B4120D33050DE50D7002050C64
:10232800B400BFE50CB420BA43BD100509E509B4F3
:1023380008AB9000B4E0FCA3E0FDA3E0FEA3E0FF3F
:0D2348007810120D0D9000A1EEF0A3EFF043
:012355002265
:102A8E007E007C007D7F120BA9AC06AD07E4120A16
:102A9E0075E4FBFA79C878421209D3120AAE90FF98
:102AAE00907411F075DA01E4F5E375E27FF5E58FC8
:052ABE00E475E10FFFCB
:012AC30022F0
:102B59007E007C007DFF120BA9AC06AD07E4120ACA
:102B690075E4FBFA79C878421209D3120AAE90FFCC
:0E2B79009C7410F075DEFF8FDF75DD947F0019
:012B8700222B
:10101A00122CBB120003122CA17F64122B59122C22
:10102A0065122B28122CD475BBAA90FEA774FFF068
:10103A0053BBF7D2AF7FC87E00122B887F64122B76
:10104A00599000B27401F07F0A12285D900088EF6F
:10105A00F09000B3F0C2AF1213E290008CE004F0FB
:10106A007F807E2F122BFD7F107E27122D3E90004F
:10107A008CE0FF7D807C2F122BB07F647E00122DC6
:10108A003ED2AF1221D5900087E0FF90009AF0126D
:10109A002B597F2C7E01122B881222D89000B41271
:1010AA000D3F0000000090008CE0C394034005E46B
:1010BA00F0122C227875E6D39402502A18E66401BD
:1010CA007024F608067F55122D7D7FAA122D7DE425
:1010DA00FF122D7D7FB4122D7DE4FF122D7D122D7E
:1010EA007D7FB3122D7D43BD10E563700B900073B5
:1010FA00E0541F700312126190007CE064016003E7
:10110A0002120BE564703DF563756401900087E097
:10111A0090009AF090009D120D3F00000000E490AC
:10112A00009BF09000997440F090008D7402F0904A
:10113A0000617406F0E4900063F09000AD120D3F78
:10114A000000000012003ED390006AE09400900074
:10115A0069E09400403B900062E0B40134E4F0900E
:10116A00006AE004F07006900069E004F090007FE5
:10117A00E0FFC390006AE09F900069E0940040118C
:10118A00E4F0A3F0900070E064016005E4FF122B24
:10119A0059D39000BAE094009000B9E09400401846
:1011AA007889E664011846700FF608F6A3E004F0A1
:1011BA0070069000B9E004F07877E66401600302F3
:1011CA0010B018E6FF78736670030210B0A6079095
:1011DA0000B9E4F0A304F0E4F508E508C394084074
:1011EA00030210B0E50825E02478F8E6FA08E6FBE1
:1011FA004A600A900071E0FD7F711220CA050880DA
:10120A00D9E4F564900071E07007FF122B590210BF
:10121A00B090008EE0FF122B59E4F563900087E04E
:10122A0090009AF090009D120D3F00000000E4909B
:10123A00009BF09000997440F090008D7402F09039
:10124A0000617406F0E4900063F09000AD120D3F67
:07125A00000000000210B0CB
:03001B00021DBD06
:101DBD00C0E0C0F0C083C082C0D075D000C000C0EC
:101DCD0001C002C003C004C005C006C007AF62AEAB
:101DDD0061AD60AC5FEF2401F562E43EF561E43D79
:101DED00F560E43CF55F900067E004F0700690004C
:101DFD0066E004F0900066E0FEA3E0FFE4FCFD7BEE
:101E0D00607AEAF9F8D3120CE6500C900066E4F013
:101E1D00A3F090006204F0788B06E618700106C3FB
:101E2D00788BE694E818E69403401278747601787E
:101E3D008A760008760078887600087601D007D07B
:101E4D0006D005D004D003D002D001D000D0D0D020
:081E5D0082D083D0F0D0E03206
:030023000228169A
:10281600C0E0C0F0C083C082C0D075D000C000C088
:0D28260001C002C003C004C005C006C00709
:0F283300E59830E00AAF991224425398FED2AFD5
:10284200D007D006D005D004D003D002D001D000EA
:0B285200D0D0D082D083D0F0D0E03294
:03003B0002001AA6
:01001A0032B3
:102BFD0053BBF7C280E5BB20E3F6D280C2AF75FDB3
:102C0D00F075FC0F8EFA8FF975FDD275FC2D75FDE3
:052C1D00E175FC1E2220
:102BB00053BBF7C280E5BB20E3F6D280C2AF8FFBE8
:102BC00075FDF075FC0F8CFA8DF975FDB475FC4B35
:072BD00075FDE175FC1E22FA
:04176E00026F000006
:1023D100EFC39430400CEFD39439500674D02FFFE3
:1023E1008022EFC39441400CEFD394465006EF2472
:1023F100C9FF8010EFC39461400AEFD39466500483
:10240100EF24A9FFEF540FC454F0FFEDC394304003
:102411000CEDD39439500674D02DFD801EEDC3947C
:10242100414008EDD394465002800CEDC3946140C5
:102431000AEDD394665004ED24A9FDED540F420733
:012441002278
:062630008B168A178918C1
:10263600E4F51CF51BF51AF519E94A4B7005FFFE82
:10264600FDFC22E4F51CF51BF51AF519AB16051869
:10265600E518AA177002051714F9120B2F6017E573
:102666001C2401F51CE4351BF51BE4351AF51AE4A8
:0E2676003519F51980D6AF1CAE1BAD1AAC1984
:012684002233
:062969008B418A42894304
:10296F008B478A488949E94A4B7004FBFAF922E5FB
:10297F00461546AE45700215454E6014AB470549E6
:10298F00E549AA487002054814F9ED120B7580DF6E
:06299F00AB41AA42A9436E
:0129A500220F
:061ACB008B308A318932E4
:101AD1008B388A39893A85333B85343C85353DE9F4
:101AE1004A4B6008E5354534453370077B007A0081
:101AF100790022D3853C83853D82E53A9582E5399B
:101B010095834019E53D2537F9E53C3536FA8A8359
:101B11008982D3E53A9582E53995834038E4F53EEB
:101B2100F53FC3E53F9537E53E95365067AB3BAA98
:101B31003CA93D853F82853E83120B48AB38AA39CB
:101B4100A93A853F82853E83120B87053FE53F70A9
:101B5100D1053E80CD85363E85373FD3E53F9400A4
:101B6100E53E9400402EAB3BAA3CA93DE53F24FF56
:101B7100FFE53E34FFFE8F82F583120B48AB38AA96
:101B810039A93A8F828E83120B87E53F153F70CBBF
:0A1B9100153E80C7AB30AA31A9321F
:011B9B002227
:1028A2008F6E8E6D8D6C8C6B7818120D0DEF120B76
:1028B20075AF6EAE6DAD6CAC6B7810120D0D9000F5
:1028C20001EF120B87AF6EAE6DAD6CAC6B78081278
:1028D2000D0D900002EF120B87E56EFF900003EFE3
:0328E200020B875F
:101F0700E4F52DF52CF52BF52A120B2FFFE48F2D79
:101F1700F52CF52BF52AAE2CAD2BAC2A7808120D33
:101F2700208F2D8E2C8D2B8C2A900001120B48FFB1
:101F3700E52D4FF52DE52CF52CE52BF52BE52AF5B1
:101F47002AAF2DAE2CAD2BFC7808120D208F2D8ECD
:101F57002C8D2B8C2A900002120B48FFE52D4FF594
:101F67002DE52CF52CE52BF52BE52AF52AAF2DAE23
:101F77002CAD2BFC7808120D208F2D8E2C8D2B8CE1
:101F87002A900003120B48FFE52D4FF52DE52CF5A0
:101F97002CE52BF52BE52AF52AAF2DAE2CAD2BFC26
:011FA7002217
:062DAA00900022E0FF2270
:0C2D7100E4900022F0FDFC7F0402272B00
:062DB00090001FE0FF226D
:082685008F658B668A67896886
:10268D00E4FDFC900021E0B401037F0122AF05AE13
:10269D0004AD65120026AC06E4FD120026AC06E57D
:1026AD0069FD120026AC06AD6A120026AC06AD0718
:1026BD00AB66AA67A96885692E856A2F1229E9ACD0
:0A26CD0006AD077F0712272B7F01DF
:0126D70022E0
:04277E008D25AB07F3
:10278200E4FDFC900021E0B401037F0122AF05AE1D
:1027920004AD03120026AC067D01120026AC06E44D
:1027A200FD120026AC067D01120026AC06AD07E53F
:1027B200257003FD8006AF05AE047D01120026AC34
:0A27C20006AD077F0712272B7F01E9
:0127CC0022EA
:0220CA00A90764
:1020CC00E4FCF525F526900021E0B401037F012204
:1020DC007527557528AAE4F529752AB2F52B752CA8
:1020EC00078A2D8B2E892F753001F531753201ED54
:1020FC007004F5338003753301E4F536F537742736
:10210C002537F8E62CFC0537E53770020536640DEB
:10211C00453670EA8C3475250075260EE4F536F5D7
:10212C0037E5261526AE25700215254E601474274A
:10213C002537F8E6FF12001E0537E53770E3053644
:04214C0080DF7F01B0
:01215000226C
:021C5A00A907D8
:101C5C00E4FCF525F526900021E0B401037F012278
:101C6C007527557528AAE4F529752AB2F52B752C1C
:101C7C00078A2D8B2E892F753001F531753201EDC8
:101C8C007004F533802EBD01057533018026BD022D
:101C9C0005753302801EBD03057533038016BD0424
:101CAC0005753304800EBD05057533058006BD062C
:101CBC0003753306E4F536F53774272537F8E62C2B
:101CCC00FC0537E53770020536640D453670EA8C35
:101CDC003475250075260EE4F536F537E526152600
:101CEC00AE25700215254E601474272537F8E6FFD3
:0F1CFC0012001E0537E5377002053680DF7F01C5
:011D0B0022B5
:021FA800AB0785
:101FAA00E4FDFC900021E0B401037F0122AF05AEFD
:101FBA0004AD03120026AC067D02120026AC06E42C
:101FCA00FD120026AC067D04120026C006C007AF2B
:101FDA002CAE2BAD2AAC297818120D0DAD07D007FF
:101FEA00D006120026C006C007AF2CAE2BAD2AAC15
:101FFA00297810120D0DAD07D007D006120026C0A1
:10200A0006C007AF2CAE2BAD2AAC297808120D0DED
:10201A00AD07D007D006120026AC06C007E52CFF94
:10202A00E4AD07D007120026AC06AD077F071227DA
:03203A002B7F01F8
:01203D002280
:021B9C00AD0793
:101B9E00E4FBF52FF530900021E0B401037F012224
:101BAE00788C76550876AAE408F60876B208F60818
:101BBE00760AE52D08F608A62E08A605087602E494
:101BCE0008F6087604AF2CAE2BAD2AAC2978181285
:101BDE000D0D7898A607AF2CAE2BAD2AAC29781038
:101BEE00120D0D7899A607AF2CAE2BAD2AAC297825
:101BFE0008120D0D789AA607E52CFFE408A607F546
:101C0E0031F532748C2532F8E62BFB0532E5327055
:101C1E000205316410453170EA789CA603752F00D9
:101C2E00753011E4F531F532E5301530AE2F700216
:101C3E00152F4E6014748C2532F8E6FF12001E0527
:0B1C4E0032E5327002053180DF7F01BB
:011C59002268
:0826D8008F238B248A2589263B
:1026E000E4FDFC900021E0B401037F0122AF05AEC0
:1026F00004AD23120026AC067D03120026AC06E5CD
:1027000027FD120026AC06AD28120026AC06AD0748
:10271000AB24AA25A92685272E85282F1229E9ACC6
:0A27200006AD077F0712272B7F018B
:01272A00228C
:0428E5008D25AB078B
:1028E900E4FDFC900021E0B401037F0122AF05AEB5
:1028F90004AD03120026AC067D04120026AC06E4E2
:10290900FD120026AC067D01120026AC06AD25128B
:0D2919000026AC06AD077F0712272B7F01BB
:01292600228E
:0219E300AD074E
:1019E500E4F54FF550900021E0B401037F0122AFEB
:1019F50050AE4F1200268E4F8F507D051200268E59
:101A05004F8F50E4FD1200268E4F8F5074FFFFE577
:101A15004DFEE54CFDE54BFCE47BFFFAF9F8C312FE
:101A25000CFC70117D01AF50AE4F1200268E4F8F0A
:101A350050AD4E807E74FFFFFEE54CFDE54BFCE4AA
:101A45007BFF7AFFF9F8C3120CFC70047D02803627
:101A55007D04AF50AE4F1200268E4F8F50AF4EAE65
:101A65004DAD4CAC4B7818120D0DAD07AF50AE4FC8
:101A75001200268E4F8F50AF4EAE4DAD4CAC4B780D
:101A850010120D0DAD07AF50AE4F1200268E4F8FC1
:101A950050AF4EAE4DAD4CAC4B7808120D0DAD07A9
:101AA500AF50AE4F1200268E4F8F50E54EFFE4AD7E
:101AB50007AF501200268E4F8F50AD50AC4F7F07A9
:051AC50012272B7F0138
:011ACA0022F9
:082D88008C258D26120B2FFF94
:012D90002220
:082D91008C258D26120B2FFF8B
:012D99002217
:072D9A008C288D29121F0790
:012DA100220F
:102442008F40D3855D83855E82E55B9582E55A95F3
:10245200834015E55B955EFFE55A955DFEC3EF94FB
:102462001FEE648094805048C3855D83855E82E55B
:102472005B9582E55A9583500DC3E55E955BFFE55A
:102482005D955A4F602AC390001FE55B9582E55A1D
:1024920095834009755901755A00755B00AB590562
:1024A2005BE55BAA5A7002055A14F9E540120B75F6
:0124B2002207
:10126100E4F509F50AF50BF50CC3E570941FE56F7C
:1012710094005024122C83EFD39400401B12292791
:101281000570E570AC6F7002056F142423F582744C
:10129100003CF583EFF080D1C3E5709407E56F94CE
:1012A1000050030213E1C3E570950AFFE56F95094C
:1012B100FEC3EF9407EE940050030213AA74232592
:1012C1000AF58274003509F583E06455600A050A60
:1012D100E50A70D2050980CE7424250AF5827400CE
:1012E1003509F583E064AA600A050AE50A70B705C5
:1012F1000980B37425250AF58274003509F583E068
:101301006004740280387427250AF5827400350957
:10131100F583E0FE7428250AF58274003509F5830A
:10132100E07C002400FFEC3ECF2407F50CE43FF500
:101331000BD3E50C9426E50B940040097403250AB0
:10134100F50AE4805DC3E570950AFFE56F9509FE36
:10135100C3EF950CEE950B40507423250AF97400E8
:101361003509FA7B01E50C24FFFDE50B34FFFC1286
:101371002AF6E50A250CFDE509350BFC74222DF54D
:101381008274003CF583E06F60097403250AF50A55
:10139100E4800FAF0AAE09120D96E50C250AF50A95
:1013A100E50B3509F5090212A7C3E570950AF57039
:1013B100E56F9509F56FD3E5709400E56F940040F2
:1013C1001F7423250AF974003509753301F5348931
:1013D10035856F368570377B017A007923121ACBF8
:0113E10022E9
:102CBB00755901755A00755B00755C01755D007582
:092CCB005E0090001F74FFF0226E
:101772004100C0004400BC000000000156000153BB
:1017820000015200015100015500015400015700AF
:10179200602400C10101020403020402050365047E
:1017A20066026701680269027101720173017402C3
:0817B20075027602770278024D
:102C22007F55122D7D7FAA122D7DE4FF122D7D7F0F
:102C320004122D7DE4FF122D7DE4FF122D7D7F0312
:032C4200022D7DE3
:03001E00022D7D33
:10153800900000E0FD7F0112277E900071E0FD7FA2
:101548007112277E900087E0FFE48F2CF52BF52A97
:10155800F5297F03121FA89000B8E0FFB4FF05E447
:10156800F515801EEFB4C8057515028015EFB4286F
:1015780005751503800CEFB4140575150480037503
:101588001505AD157F651228E5900089E0FEA3E0FA
:10159800FFE48F2C8E2BF52AF5297F66121FA89061
:1015A800007CE0FD7F6712277E90007FE0FFE48FDC
:1015B8002CF52BF52AF5297F68121FA8E47B107AF1
:1015C80027F9F890006BE0FCA3E0FDA3E0FEA3E0A0
:1015D800FF120C46C374329FFFE48F2CF52BF52ABB
:1015E800F5297F69121FA87877E6FD7F7212277E9A
:1015F800900065E0FFE48F2CF52BF52AF5297F0490
:10160800121FA8900070E0FD7F7312277E90007D66
:10161800E0FEA3E0FFE48F2C8E2BF52AF5297F74DA
:10162800121FA89000A1E0FEA3E0FFE48F2C8E2BF0
:10163800F52AF5297F75121FA8900088E0FFE48F2E
:101648002CF52BF52AF5297F76121FA8900074E057
:10165800FCA3E0FDA3E0FEA3E0F52C8E2B8D2A8CE5
:10166800297F77121FA8900078E0FCA3E0FDA3E093
:10167800FEA3E0F52C8E2B8D2A8C297F78021FA8DB
:102CEB00122D88900000EFF0FD7F0112277EBF01AF
:062CFB00037F01227F00AF
:012D010022AF
:102D1900122D91AD077F021228E5BF01037F012221
:022D29007F0029
:012D2B002285
:10225800122D9A8F268E258D248C23055290008767
:10226800E0FFE4FCFDFEAB26AA25A924A823C3129F
:102278000CFC6032E4F552F527E52725E02478F8D0
:10228800E6FA08E6FB4A601585262C85252B852469
:102298002A8523298A2D8B2E7F03121B9C0527E56F
:1022A80027C3940840D3AF26900087EFF090008EA4
:1022B800F01218E3900087E0FFE48F2CF52BF52A45
:0F22C800F5297F03121FA8BF01037F01227F00AA
:0122D70022E4
:102AC400122D9A8F268E258D248C23900065EFF08D
:102AD400122A8E1218E3900065E0FFE48F2CF52B88
:102AE400F52AF5297F04121FA8BF01037F01227F65
:012AF40000E1
:012AF50022BE
:102D50008C278D287F051226D8BF01037F01227F93
:012D60000072
:012D6100224F
:101E6500122D918F2305519000C0E0B52317E5236E
:101E7500640570359000B8E0FF900088E06F602938
:101E8500E4F5518024E4F551F524E52425E0247892
:101E9500F8E6FA08E6FB4A6007AD237F65121C5A8F
:101EA5000524E524C3940840E1E52314601014607B
:101EB5001514601A14601F146024240570289000FE
:101EC500B874FFF080209000B874C8F080189000B6
:101ED500B87428F080109000B87414F08008900051
:101EE50088E09000B8F09000C0E523F01218E39068
:101EF50000C0E0FD7F651228E5BF01037F01227F59
:011F050000DB
:011F060022B8
:10215100122D9A8F268E258D248C2305559000896A
:10216100E0FEA3E0FFE4FCFDAB26AA25A924A823F9
:10217100C3120CFC6032E4F555F527E52725E02470
:1021810078F8E6FA08E6FB4A601585262C85252BAA
:1021910085242A8523298A2D8B2E7F66121B9C0577
:1021A10027E527C3940840D3900089E525F0A3E5EE
:1021B10026F01218E3900089E0FEA3E0FFE48F2CE3
:1021C1008E2BF52AF5297F66121FA8BF01037F0117
:0321D100227F006A
:0121D40022E8
:1025DA00122D888F23055390007CE065236024E444
:1025EA00F553F524E52425E02478F8E6FA08E6FB15
:1025FA004A6007AD237F671220CA0524E524C394E5
:10260A000840E1E52390007C7003F080037401F038
:10261A001218E390007CE0FD7F6712277EBF01035A
:05262A007F01227F008A
:01262F002288
:10235600122D9A8F268E258D248C23055490007F6E
:10236600E0FFE4FCFDFEAB26AA25A924A823C312A0
:102376000CFC6032E4F554F527E52725E02478F8CF
:10238600E6FA08E6FB4A601585262C85252B85246A
:102396002A8523298A2D8B2E7F68121B9C0527E50B
:1023A60027C3940840D390007FE526F01218E390E7
:1023B600007FE0FFE48F2CF52BF52AF5297F6812C4
:0A23C6001FA8BF01037F01227F0062
:0123D00022EA
:101D0C00122D9A8F268E258D248C2305579000BC7E
:101D1C00E0FCA3E0FDA3E0FEA3E0FFAB26AA25A90F
:101D2C0024A823C3120CFC6032E4F557F527E527F1
:101D3C0025E02478F8E6FA08E6FB4A601585262C9F
:101D4C0085252B85242A8523298A2D8B2E7F6912A4
:101D5C001B9C0527E527C3940840D3AF26AE25ADC1
:101D6C0024AC239000BC120D33C374329526FFE4CF
:101D7C009525FEE49524FDE49523FCE47B107A275D
:101D8C00F9F8120BBB90006B120D331218E3900094
:101D9C00BCE0FCA3E0FDA3E0FEA3E0F52C8E2B8DB4
:101DAC002A8C297F69121FA8BF01037F01227F00A3
:011DBC002204
:10251900122D888F230556900071E065236024E40D
:10252900F556F524E52425E02478F8E6FA08E6FBD3
:102539004A6007AD237F711220CA0524E524C3949C
:102549000840E1E5237006900071F0801190007C4D
:10255900E0B40104787676019000717401F090007E
:1025690071E0FD7F7112277EBF01037F01227F0089
:01257900223F
:1027CD00122D888F23E5237877666022E4F524E5C2
:1027DD002425E02478F8E6FA08E6FB4A6007AD23E5
:1027ED007F721220CA0524E524C3940840E1E52335
:1027FD0078777003F680027601AD237F7212277E03
:08280D00BF01037F01227F00DF
:0128150022A0
:102D0200122D88900070EFF0FD7F7312277EBF01B5
:062D1200037F01227F0097
:012D18002298
:0617BE008B1D8A1E891F2D
:1017C400EF120D7017F301182202183203184204A5
:1017D400185205186165187066187F67188E6818A6
:1017E4009D6918AC7118BB7218CA73000018DBAB82
:1017F4001DAA1EA91FAD21AC20122CEB8F22E522BD
:10180400640160030218E090009CE004F0E0C394DB
:101814000550030218E0E4F0122C220218E0AB1D7C
:10182400AA1EA91FAD21AC20122D190218D7AB1D79
:10183400AA1EA91FAD21AC201222580218D7AB1D35
:10184400AA1EA91FAD21AC20122AC40218D7AB1DB1
:10185400AA1EA91FAD21AC20122D508076AB1DAA63
:101864001EA91FAD21AC20121E658067AB1DAA1EE8
:10187400A91FAD21AC201221518058AB1DAA1EA96D
:101884001FAD21AC201225DA8049AB1DAA1EA91F69
:10189400AD21AC20122356803AAB1DAA1EA91FAD60
:1018A40021AC20121D0C802BAB1DAA1EA91FAD213B
:1018B400AC20122519801CAB1DAA1EA91FAD21AC9A
:1018C400201227CD800DAB1DAA1EA91FAD21AC206F
:0E18D400122D028F228000E490009CF0AF22C3
:0118E20022E3
:032DB6007F122267
:1018E3007F007E2F122BFD7F107E27122D3EE47B7F
:1018F300E87A03F9F890006BE0FCA3E0FDA3E0FEB7
:10190300A3E0FF120C467808120D0D7D007C2F1208
:101913002BB07F647E00122D3EE47BE87A03F9F856
:1019230090006BE0FCA3E0FDA3E0FEA3E0FF120C3C
:1019330046E47D017C2F122BB07F647E00122D3E86
:101943009000B8E0FF7D027C2F122BB07F647E00F5
:10195300122D3E900089E0FF7D037C2F122BB07F78
:10196300647E00122D3E900089A3E0FF7D047C2F4E
:10197300122BB07F647E00122D3E900087E0FF7D26
:10198300057C2F122BB07F647E00122D3E90007FCA
:10199300E0FF7D067C2F122BB07F647E00122D3E6C
:1019A30090007CE0FF7D077C2F122BB07F647E00CC
:1019B300122D3E900065E0FF7D087C2F122BB07F37
:1019C300647E00122D3E7F807E2F122BFD7F107EC2
:0F19D30027122D3E7D807C2FE4FF122BB0D2AF68
:0119E20022E2
:0F2D62003577676671726F3400312E302E300076
:0317BA00015800D3
:1000260074482FF974003EFA7B01ED120B750FBF71
:0300360000010EB8
:0100390022A4
:0629E300AF157E007BFF32
:0A29E9008E298F2A8B2B8A2C892D52
:1029F30074482FF974003EFA7B01852B33852C3400
:102A0300852D35852E36852F37121ACBE52F252AAE
:0B2A1300F52AE52E3529F529FEAF2A33
:012A1E002295
:1029A6008B2F8A3089318C328D33E94A4B602DE585
:1029B6003345326027E5331533AE32700215324E99
:1029C600601AAB2FAA30A931120B2FFF12001E740A
:0D29D600012531F531E43530F53080D9228E
:0A2AF6008B2F8A3089318C328D332A
:102B0000E4FFFDFCC3ED9533EC9532501AAB2F0575
:102B100031E531AA307002053014F9120B2F2FFF66
:072B20000DBD00010C80DD7A
:012B2700228B
:04272B008C2D8D2E36
:10272F009000427455F0A374AAF0E4A3F0A3EFF065
:10273F00E52DA3F0E52EA3F02407F52EE4352DF5B6
:10274F002D7B017A007942E52E24FFFDE52D34FF24
:10275F00FC122AF67441252EF5827400352DF5836F
:0F276F00EFF07B017A007942AD2EAC2D0229A646
:0424B3008C718D7229
:1024B70074022572F572E43571F571900042745516
:1024C700F0A374AAF0E4A3F0A3EFF0E571A3F0E59D
:1024D70072A3F0A374FFF0A3F074072572F572E4FA
:1024E7003571F5717B017A007942E57224FFFDE5CC
:1024F7007134FFFC122AF674412572F58274003597
:1025070071F583EFF07B017A007942AD72AC71020D
:0225170029A6F3
:102C4500E4FFE558700AFEFD12002675580180075D
:102C55007E007D01120026EFFD7C00E4FF02272B9C
:102A1F00E4F5157BFF7A2D79621226308E2E8F2FDB
:102A2F007A2D79621229E38F157BFF7A2D796B123C
:102A3F0026308E2E8F2F7A2D796B1229E38F15EF7B
:082A4F00FD7C007F0102272B32
:082DA200E4FDFC7F0202272B77
:022BD7008F1C51
:102BD900122DB6E4FEEEC39F501775F002EEA42441
:102BE900C1F582E5F03400F583E0651C60030E80D1
:032BF900E4AF0640
:012BFC0022B6
:06257A008B158A1689177B
:10258000120B2FF518900001120B48F5199000025C
:10259000120B48751B00F51A900003120B48251BFF
:1025A000F51BE4351AF51AAF18122BD775F002EFA8
:1025B000A424C2F582E5F03400F583E065196003D8
:1025C0007F0022AB15E5172404F9E43516FA851AC5
:0925D00020851B21AF181217BE73
:0125D90022DF
:040D96008E0D8F0E21
:100D9A0074262FF58274003EF583E0FF244C70031D
:100DAA00020E9D24B4B409004003021019900DBE2E
:100DBA00F8282873020DD9020DDC020DDF020DE2BC
:100DCA00020DFB021019020E02021019021016027D
:100DDA002C45022A1F022DA27429250EF5827400C1
:100DEA00350DF583E090001FF0E4FDFC7F03022738
:100DFA002B9000227401F0227427250EF5827400CC
:100E0A00350DF583E0751400F5137428250EF58267
:100E1A007400350DF583E02514F514E43513F51344
:100E2A00E4F511F512C3E5129514E5119513400383
:100E3A00021019E50E2512FDE50D3511FC742B2D56
:100E4A00F58274003CF583E0751000F50F742C2DC3
:100E5A00F58274003CF583E02510F510E4350FF5B2
:100E6A000F7429250EF97400350DFA7B01E9251254
:100E7A00F9EA3511FA12257ABF01031218E3E510CF
:100E8A002404FFE4350FFEEF2512F512EE3511F5B5
:100E9A001180927427250EF5827400350DF583E0D2
:100EAA00751400F5137428250EF5827400350DF5B6
:100EBA0083E02514F514E43513F513742A250EF589
:100ECA00827400350DF583E0F8E47979F7E819F7CB
:100EDA00742B250EF5827400350DF583E07879269A
:100EEA00F618E436F6742C250EF5827400350DF5E5
:100EFA0083E0F8E4797BF7E819F7742D250EF5827B
:100F0A007400350DF583E0787B26F618E436F6741E
:100F1A002E250EF5827400350DF583E0F8E4797D0F
:100F2A00F7E819F7742F250EF5827400350DF5834D
:100F3A00E0787D26F618E436F67430250EF58274CC
:100F4A0000350DF583E0F8E4797FF7E819F7743195
:100F5A00250EF5827400350DF583E0787F26F618A4
:100F6A00E436F67432250EF5827400350DF583E009
:100F7A00F8E47981F7E819F77433250EF5827400DD
:100F8A00350DF583E0788126F618E436F6743425B3
:100F9A000EF5827400350DF583E0F8E47983F7E8FD
:100FAA0019F77435250EF5827400350DF583E0784E
:100FBA008326F618E436F67436250EF58274003563
:100FCA000DF583E0F8E47985F7E819F77437250E0B
:100FDA00F5827400350DF583E0788526F618E43637
:100FEA00F67438250EF5827400350DF583E0F8E4C1
:100FFA007987F7E819F77439250EF5827400350DEB
:0F100A00F583E0788726F618E436F622121538BB
:0110190022B4
:102C8300E55C855D83855E826559700AE55B6582D7
:0E2C93007004E55A658360037F01227F0022F2
:10292700E559855A83855B82655C700AE55E658239
:102937007004E55D65836029C390001FE55E95829D
:10294700E55D95834009755C01755D00755E00ABBB
:102957005C055EE55EAA5D7002055D14F9120B2F3A
:01296700FF70
:01296800224C
:1009D000020B24EC5D046005E859047003020B1A55
:1009E000120AE5580460F6EC4860F2EC7004FDFE73
:1009F000FF22C860DB2481C85009C39860025006FA
:100A0000020B219850CAF582E9294B4A7005AB8246
:100A1000020B1075F0007C1A7880C3EF9BEE9AED04
:100A200099400DC3EF9BFFEE9AFEED99FDE842F071
:100A3000DC23ACF0D0E0FFD0E0FED0E0FDAB8220C4
:100A4000E7101BEB60BAEC2CFCEF33FFEE33FEED4E
:100A500033FD020AFCE803F830E705C0F075F0004A
:100A6000EF2FFFEE33FEED33FD40B830E7C280AA32
:100A700075F020800E75F010800575F0087D007E01
:100A8000007F003392D530D503120CD8EC334010E0
:100A9000EF33FFEE33FEED33FDEC33FCD5F0ED220A
:0E0AA000E5F0247EA2D513CC92E7CDCEFF2246
:100AAE00EDD2E7CD33EC3392D524814006E4FFFE40
:100ABE00FDFC22FCE4CFCECDCC24E0501174FF809F
:100ACE00EDC3CC13CCCD13CDCE13CECF13CF04703C
:070ADE00F030D5DE020CD858
:100AE500E9D2E7C933E833F892D5EDD2E7CD33EC57
:070AF50033FC5002B2D522D0
:100AFC00EC30E7100FBF000C0EBE00080DBD00045B
:100B0C000BEB6014A2D5EB13FCED92E7FD2274FF06
:100B1C00FCFDFEFF22E480F8A2D574FF13FC7D805F
:030B2C00E480EF73
:10204A0002101AE493A3F8E493A34003F68001F282
:10205A0008DFF48029E493A3F85407240CC8C33397
:10206A00C4540F4420C8834004F456800146F6DF66
:10207A00E4800B0102040810204080901688E47E58
:10208A00019360BCA3FF543F30E509541FFEE4935B
:10209A00A360010ECF54C025E060A840B8E493A322
:1020AA00FAE493A3F8E493A3C8C582C8CAC583CA4D
:1020BA00F0A3C8C582C8CAC583CADFE9DEE780BE05
:0117BD00002B
:100B2F00BB010689828A83E0225002E722BBFE02C4
:090B3F00E32289828A83E49322F7
:100B4800BB010CE58229F582E5833AF583E0225062
:100B580006E92582F8E622BBFE06E92582F8E222AC
:0D0B6800E58229F582E5833AF583E49322C6
:100B7500BB010689828A83F0225002F722BBFE015F
:020B8500F32259
:100B8700F8BB010DE58229F582E5833AF583E8F0A4
:100B9700225006E92582C8F622BBFE05E92582C850
:020BA700F22238
:100BA900EF8DF0A4A8F0CF8CF0A428CE8DF0A42E60
:020BB900FE221A
:100BBB00E88FF0A4CC8BF0A42CFCE98EF0A42CFCD9
:100BCB008AF0EDA42CFCEA8EF0A4CDA8F08BF0A457
:100BDB002DCC3825F0FDE98FF0A42CCD35F0FCEBB6
:100BEB008EF0A4FEA9F0EB8FF0A4CFC5F02ECD397B
:0F0BFB00FEE43CFCEAA42DCE35F0FDE43CFC22E8
:100C0A0075F008758200EF2FFFEE33FECD33CDCCA1
:100C1A0033CCC58233C5829BED9AEC99E582984024
:100C2A000CF582EE9BFEED9AFDEC99FC0FD5F0D601
:100C3A00E4CEFBE4CDFAE4CCF9A88222B800C1B92B
:100C4A000059BA002DEC8BF084CFCECDFCE5F0CB69
:100C5A00F97818EF2FFFEE33FEED33FDEC33FCEBA2
:100C6A0033FB10D703994004EB99FB0FD8E5E4F95D
:100C7A00FA227818EF2FFFEE33FEED33FDEC33FC4A
:100C8A00C933C910D7059BE99A4007EC9BFCE99A3E
:100C9A00F90FD8E0E4C9FAE4CCFB2275F010EF2F83
:100CAA00FFEE33FEED33FDCC33CCC833C810D70783
:100CBA009BEC9AE899400AED9BFDEC9AFCE899F8BE
:0E0CCA000FD5F0DAE4CDFBE4CCFAE4C8F92251
:0E0CD800C3E49FFFE49EFEE49DFDE49CFC222D
:100CE600EB9FF5F0EA9E42F0E99D42F0EC6480C885
:060CF60064809845F02225
:100CFC00EB9FF5F0EA9E42F0E99D42F0E89C45F04E
:010D0C0022C4
:100D0D00E8600FECC313FCED13FDEE13FEEF13FFC4
:030D1D00D8F122E8
:100D2000E8600FEFC333FFEE33FEED33FDEC33FC31
:030D3000D8F122D5
:0C0D3300ECF0A3EDF0A3EEF0A3EFF02233
:100D3F00A8828583F0D083D082120D56120D5612E1
:100D4F000D56120D56E473E493A3C583C5F0C58306
:100D5F00C8C582C8F0A3C583C5F0C583C8C582C8FE
:010D6F002261
:100D7000D083D082F8E4937012740193700DA3A312
:100D800093F8740193F5828883E473740293686026
:060D9000EFA3A3A380DF26
:00000001FF
