:03000000021F9646
:0C1F9600787FE4F6D8FD75819C021FDD09
:1015F300045F000000004100630041009A0C4100B9
:101603009B4044009200000000440074000000006E
:10161300440078000000004400AF000000004400D4
:101623009F000000004400B7000000004200840057
:101633000142007200004100680041008E00420038
:10164300BC000042006900004100610841009D00A8
:101653004100BE000163000164004100B500410088
:10166300710041007C014100870A41009E00410056
:101673009C0A41008D004100900042006600004139
:10168300006200028A00000288000041006F0041EE
:1016930000B4004100910010780000000000000039
:1016A300000000000000000000017400017500014B
:1016B300770001760001730041006500410070006E
:1016C30042007D00004100B30041008F0041008CC7
:1016D300004A00A5000000000000000000004100D7
:0216E3006400A1
:102B24008E098F0A8B0B8A0C890DAF051DEF60216E
:102B3400050AE50AAE097002050914F5828E83E4DC
:102B440093FF780BE475F001120CBFEF120A1A80A0
:022B5400D92284
:102E2600E4FDFCC3ED9FEC9E50070DBD00010C8038
:012E3600F2A9
:012E37002278
:102C79008F828E83E4F562F561F560F55FAF82AE10
:102C890083E4FCFDAB62AA61A960A85FC3120C27AB
:082C9900500543BD1080E62246
:102E3800E4FDFCC3ED9FEC9E50070DBD00010C8026
:012E4800F297
:012E49002266
:10000300758E5190FE917401F0A37410F075BD5F6D
:0700130090FEA07420F02212
:102D7900E490FE80F0758901758DFA758BCB43A8B7
:0E2D890008438840758CCB758AEB4388102276
:102BEC0090FF10E054F04408F090FF02E054F044E1
:102BFC0002F0D28490FFA07420F0A37404F075CC82
:102C0C000675CEFF75CD98759E0275981043A81069
:012C1C002295
:102DCE0043B40343B4807F147E00122E2675B502E1
:072DDE0090FE9B744BF022F4
:102CA10090FF08E054F04408F090FF00E04488F001
:102CB100A3E04483F090FF03E054F04408F090FF58
:082CC10011E054F04403F0227D
:0B2E77008F99E59830E1FB5398FD2295
:102971008FB543B440E5B430E5FB53B4DF7F647EEB
:1029810000122E26E4FBFAF943B440E5B430E5FB2E
:1029910053B4DFE5B62BFBE5B73AFA7F147E00129C
:1029A1002E2609B910E275B502A9027F647E0012D4
:0429B1002E26AF011E
:0129B50022FF
:10173B007B017A0079A57D0A7F007E2F122B2490E6
:10174B0000A5E0FFE4FCFDFE90006B120C76900010
:10175B006B120C5E7808120C4B90006B120C76908F
:10176B00006B120C6A9000A6E0FFE4FCFDFE120A6F
:10177B00CB90006B120C7690006B120C5EE47BE846
:10178B007A03F9F8120AE690006B120C76E47F30BC
:10179B007E75FDFC90006B120C6AC3120C27401473
:1017AB007F007E097D3D7C0090006B120C6AD3128A
:1017BB000C27400A90006B120C8200009C4090009A
:1017CB00A7E09000BBF0700280079000BBE0B4FE76
:1017DB000374FFF09000A8E0FF900089E4F0A3EF02
:1017EB00F0E0F8E4F0E8900089F09000A9E0FF90B9
:1017FB000089E48FF0120AB5900089E0FEA3E0FFA8
:10180B004E6009D3EF9408EE94074009900089E4E9
:10181B00F0A37405F09000AAE0900087F090009080
:10182B00F09000ABE090007FF06006E0D394FF40B7
:10183B000690007F7401F09000ACE0540190007CA6
:10184B00F07B017A0079647D017F807E2F122B243F
:09185B00900064E090008DF02281
:10003E00E563600302073143B440E5B430E5FB539A
:10004E00B4DF85B70985B60A900072E475F0011227
:10005E000AB59000B7120C6AAE09AF0AE4FCFD12A5
:10006E000ACB9000B7120C769000A3E0FEA3E0FF3F
:10007E00C3950AEE9509500DC3E50A9FF50AE509E9
:10008E009EF509800BC3EF950AF50AEE9509F50961
:10009E00900078120C6AAE09AF0AE4FCFD120ACB8E
:1000AE00900078120C76900072E05401FEA3E04EA0
:1000BE007061D39000BDE094009000BCE0940040CD
:1000CE001790009CE094645042E02402F0E0D39438
:1000DE006440387464F08033900069E07004A3E0EB
:1000EE006401702F900087E0FF90009CE0FED39F8C
:1000FE004019EE94024004E024FEF090009CE0C310
:10010E009F5008900087E090009CF090009CE0FFCC
:10011E001227FAC3900072E09420500302077C432A
:10012E00BD10E4F0A3F090009DE004F090009F124B
:10013E000C5E9000B7120C6A120ACB90009F120C44
:10014E007690009DE0C394084037E4F090009F1233
:10015E000C5E7810120C3890009F120C7690009F57
:10016E00120C5E9000A3EE8FF0120AB59000A3E081
:10017E00C313F0A3E013F090009F120C8200000056
:10018E0000900061E0C394085005E004F0805690A2
:10019E0000BCE07002A3E0704C7F0A12297190003F
:1001AE0088EFF09000B6E0FE2402FDE433FCEFD3BE
:1001BE009DEC6480F8748098501E900088E02402B4
:1001CE00FDE433FCEED39DEC6480F8748098500807
:1001DE009000B6E0900088F0900088E09000B6F0B5
:1001EE00E4900061F0E4FFFEFDFC900074120C6AD6
:1001FE00C3120C277041900078120C5EEF2488FF1A
:10020E00EE3413FEE43DFDE43CFC900074120C76DB
:10021E00900084E07002A3E0701D7F407E427D0F4F
:10022E00FC900074120C6AD3120C27400A900074D2
:10023E00120C82000F4240900063E070169000781E
:10024E00120C5E900092120C76900080120C8200BE
:10025E00000001900080120C5E900078120C6A1261
:10026E000ACB900092120C6AC3120C2740030205AF
:10027E0007900080120C5E900092120C6A120ACB4C
:10028E00900078120C6AC3120C27400302050790E7
:10029E000063E004F09000AF120C5E900078120C38
:1002AE006A120ACB9000AF120C76900063E0FFFB4F
:1002BE00E4FAF9F89000AF120C5E120B71900092F6
:1002CE00120C76900092120C5E7803120C3890008D
:1002DE0080120C76E47F207E4EFDFC900080120C86
:1002EE006AC3120C27500A900080120C8200004E36
:1002FE0020E47F607EEAFDFC900080120C6AD3122F
:10030E000C27400A900080120C820000EA609000D8
:10031E0092120C5E900074120C6AD3120C27404C91
:10032E00900092120C6A900074120C5E120AD89011
:10033E0000B7120C767F807E387D017C009000B76E
:10034E00120C6AD3120C27400890009A7406F080A3
:10035E0021E47F407E9CFDFC9000B7120C6AD31204
:10036E000C2790009A40087409F0800690009A7449
:10037E000CF090009AE0FF900063E0C39F407B90EA
:10038E000074120C5E900092120C6AC3120C27506D
:10039E006990009BE09410500302051690009AE0BD
:1003AE00D394095008900092120C5E8044900092F3
:1003BE00120C5EEF24A0FFEE340FFEE43DFDE43C94
:1003CE00FC900074120C6AD3120C27402A90007411
:1003DE00120C5E900092120C6A120ACB90007412EC
:1003EE000C76900074120C5EE47B02FAF9F8120B94
:1003FE0071900074120C7602050790009BE0FF903E
:10040E000063E0C39F5003020516900074120C5E49
:10041E00EF24A0FFEE340FFEE43DFDE43CFC900023
:10042E0092120C6AD3120C2750030204F790007438
:10043E00120C6A900092120C5E120AD89000B7123B
:10044E000C767F007E127D7A7C00900092120C6AF0
:10045E00C3120C2740030204F77F807E1A7D067CB0
:10046E00009000B7120C6AC3120C27507C90009BB0
:10047E00E09410400280487FE07E937D047C0090E3
:10048E0000B7120C6AD3120C27400890009B741010
:10049E00F0801F7FF07E497D027C009000B7120C29
:1004AE006AD3120C2790009B4005740CF0800374E5
:1004BE0008F090009BE0FF900063E0C39F402A90FD
:1004CE000074120C5E900092120C6A120ACB90000D
:1004DE0074120C76900074120C5EE47B02FAF9F83A
:1004EE00120B71900074120C7690009BE0FF90003E
:1004FE0063E0C39F4012E48004E4900063F0900038
:10050E00AF120C820000000090008EE0D3940040E9
:10051E0066E014F0900096120C5EEF2470FFEE343D
:10052E0017FEE43DFDE43CFC900074120C6AD312FD
:10053E000C27500302069E900096120C5EEF249834
:10054E00FFEE343AFEE43DFDE43CFC900078120CE4
:10055E006AC3120C27400302069E900096120C5E90
:10056E00EF2470FFEE3417FEE43DFDE43CFC9000FA
:10057E0074120C7602069ED3900085E094009000D3
:10058E0084E09400407B74FFF5F0120AB5D390001E
:10059E0085E09400900084E0940040657F007E1218
:1005AE007D7A7C00900074120C6AD3120C27400CDA
:1005BE0090006B120C82000C3500804590006B127F
:1005CE000C5E900074120C6A120ACB9000B7120CDB
:1005DE00767F407E547D897C009000B7120C6AD3E2
:1005EE00120C27401C900074120C6AC374409BFFBF
:1005FE0074549AFE748999FDE498FC90006B120C69
:10060E007690006B120C5E900074120C6A120ACB7C
:10061E00900078120C6AD3120C2740749000BBE045
:10062E00FF900088E0D39F400FD3900085E09400A8
:10063E00900084E0940040589000BCE07002A3E06B
:10064E00700C900074120C5E900096120C76900056
:10065E00BCE4F0A304F07876F690007DE475F0012A
:10066E00120AB590007DE0FEA3E0FFE48F2C8E2BE6
:10067E00F52AF5297F74121F0090009B7408F0E490
:10068E00900069F0A3F0788AF608F67888F608F6F6
:10069E009000A3E0FEA3E0FFE48F2C8E2BF52AF54D
:1006AE00297F75121F00900088E0FFE48F2CF52B38
:1006BE00F52AF5297F76121F00900074120C5E8FBA
:1006CE002C8E2B8D2A8C297F77121F00900078128A
:1006DE000C5E8F2C8E2B8D2A8C297F78121F00900A
:1006EE0000B7120C8200000000900078120C8200FD
:1006FE000000009000BCE0FEA3E0FFD39400EE9457
:10070E0000406B900089E0FCA3E0FDD3EF9DEE9CD2
:10071E00405CE49000BCF0A3F07563017876F67847
:10072E0073F622900069E4F0A304F0E4F563900000
:10073E0066F0A3F0900062F07FFAFE122C79900022
:10074E009F120C8200000000E490009DF090009B30
:10075E007440F090008E7402F09000617406F0E424
:0E076E00900063F09000AF120C8200000000BB
:01077C00225A
:10230900E4F50A9000B7120C8200000000E4F50918
:1023190043B440E5B430E5FB53B4DF9000B7120C89
:102329006AAFB6AEB7E4FCFD120ACB9000B7120C47
:10233900760509E509B480D87F907E01122C799041
:1023490000B7120C5E780B120C388F09E509D3948B
:102359000C400CE509948D5006E50A9414500A05C1
:092369000AE50AD39450409B22BE
:012372002248
:102373009000B7120C8200000000E4F509E4F50CAC
:10238300F50D43B440E5B430E5FB53B4DF85B70A3C
:1023930085B60B9000B7120C6AAE0AAF0BE4FCFDD6
:1023A300120ACB9000B7120C76050DE50D700205ED
:1023B3000CB400CEE50CB420C943BD100509E509F2
:1023C300B408BA9000B7120C5E7810120C38900063
:0623D300A3EEF0A3EFF001
:0123D90022E1
:1024FC00BF0105E4FCFD80377E007C017DFF120AE4
:10250C004E1C7D64120A60AC06AD07E412091A8FEA
:10251C002A8E298D288C27E4FFFEFD7C3FAB2AAA4E
:10252C0029A928A827120784120953AC06AD0790D5
:10253C00FF917406F075DA0175E30175E2FF8CE723
:07254C008DE675E10F7F0031
:012553002265
:1025AC00BF0105E4FCFD80377E007C017DFF120A33
:1025BC004E1C7D64120A60AC06AD07E412091A8F3A
:1025CC002A8E298D288C27E4FFFEFD7C3FAB2AAA9E
:1025DC0029A928A827120784120953AC06AD07E4D1
:1025EC0090FF94F075DB0175EB0175EAFF8CED8DB6
:0525FC00EC75E90FFF82
:0126010022B6
:10260200BF0105E4FCFD80377E007C017DFF120ADC
:102612004E1C7D64120A60AC06AD07E412091A8FE3
:102622002A8E298D288C27E4FFFEFD7C3FAB2AAA47
:1026320029A928A827120784120953AC06AD0790CE
:10264200FF957401F0F5DBF5EB75EAFF8CEF8DEE8B
:0526520075E90F7F0097
:012657002260
:10255400BF0105E4FCFD80377E007C017DFF120A8B
:102564004E1C7D64120A60AC06AD07E412091A8F92
:102574002A8E298D288C27E4FFFEFD7C3FAB2AAAF6
:1025840029A928A827120784120953AC06AD07907D
:10259400FF907403F075DA0175E30175E2FF8CE5D1
:0725A4008DE475E10F7F00DB
:0125AB00220D
:1027FA00BF0104E4FE80397E007C007DFF120A4E90
:10280A00AC06AD07E412091AE4FBFA79C878421259
:10281A0008788F0E8E0D8D0C8C0BE4FFFEFD7C3F2D
:10282A00AB0EAA0DA90CA80B120784120953AE0706
:10283A0090FF9C7410F075DEFF8EDF75DD947F00CB
:01284A00226B
:100F6500122DB5120003122CA17F641227FA122D3F
:100F750079122BEC122DCE75BBAA90FEA774FFF04B
:100F850053BBF7D2AF7FC87E00122C797F6412273E
:100F9500FA9000B57401F07F0A122971900088EF6C
:100FA500F09000B6F0C2AF12173B90008DE004F050
:100FB5007F807E2F122CF07F107E27122E38900016
:100FC5008DE0FF7D807C2F122CC97F647E00122E60
:100FD50038D2AF122309900087E0FF90009CF012F1
:100FE50027FA7F2C7E01122C791223739000B712F9
:100FF5000C820000000090008DE0C394034005E4DE
:10100500F0122D157875E6D39402502A18E664017E
:101015007024F608067F55122E777FAA122E77E4E4
:10102500FF122E777FB4122E77E4FF122E77122E41
:10103500777FB3122E7743BD10E563700B90007375
:10104500E0541F70031211A190007CE0640160035D
:1010550002114BE564703DF563756401900087E00E
:1010650090009CF090009F120C8200000000E4901C
:10107500009DF090009B7440F090008E7402F090FB
:1010850000617406F0E4900063F09000AF120C82EA
:101095000000000012003ED390006AE0940090002A
:1010A50069E094004036900062E0B4012FE4F090CE
:1010B500006975F001120AB590007FE0FFC390004A
:1010C5006AE09F900069E094004011E4F0A3F0907D
:1010D5000070E064016005E4FF1227FAD39000BDBB
:1010E500E094009000BCE0940040127889E6640129
:1010F50018467009F608F675F001120AB57877E614
:1011050064016003020FFB18E6FF78736670030243
:101115000FFBA6079000BCE4F0A304F0E4F508E596
:1011250008C394084003020FFBE50825E02478F87E
:10113500E6FA08E6FB4A600A900071E0FD7F71124D
:101145002022050880D9E4F564900071E07007FF5E
:101155001227FA020FFB900090E0FF1227FAE4F540
:1011650063900087E090009CF090009F120C820035
:10117500000000E490009DF090009B7440F090000A
:101185008E7402F09000617406F0E4900063F090B4
:0C11950000AF120C8200000000020FFBF3
:03001B00021C7D47
:101C7D00C0E0C0F0C083C082C0D075D000C000C02D
:101C8D0001C002C003C004C005C006C007AF62AEEC
:101C9D0061AD60AC5FEF2401FFE43EFEE43DFDE489
:101CAD003C8F628E618D60F55F900066E475F0018A
:101CBD00120AB5900066E0FEA3E0FFE4FCFD7B6038
:101CCD007AEAF9F8D3120C11500C900066E4F0A3E7
:101CDD00F090006204F0788B06E618700106C37868
:101CED008BE694E818E69403401278747601788AAE
:101CFD00760008760078887600087601D007D00641
:101D0D00D005D004D003D002D001D000D0D0D082E5
:071D1D00D083D0F0D0E032CA
:030023000228E3CD
:1028E300C0E0C0F0C083C082C0D075D000C000C0BB
:0D28F30001C002C003C004C005C006C0073C
:0F290000E59830E00AAF991222995398FED2AFB2
:10290F00D007D006D005D004D003D002D001D0001C
:0B291F00D0D0D082D083D0F0D0E032C6
:03003B0002001AA6
:01001A0032B3
:102CF00053BBF7C280E5BB20E3F6D280C2AF75FDBF
:102D0000F075FC0F8EFA8FF975FDD275FC2D75FDEF
:052D1000E175FC1E222C
:102CC90053BBF7C280E5BB20E3F6D280C2AF8FFBCE
:102CD90075FDF075FC0F8CFA8DF975FDB475FC4B1B
:072CE90075FDE175FC1E22E0
:0416E500026F000090
:10222800EFC39430400CEFD39439500674D02FFF8D
:102238008022EFC39441400CEFD394465006EF241C
:10224800C9FF8010EFC39461400AEFD3946650042D
:10225800EF24A9FFEF540FC454F0FFEDC3943040AE
:102268000CEDD39439500674D02DFD801EEDC39427
:10227800414008EDD394465002800CEDC394614070
:102288000AEDD394665004ED24A9FDED540F4207DE
:012298002223
:0626AE008B168A17891843
:1026B400E4F51CF51BF51AF519E94A4B7005FFFE04
:1026C400FDFC22E4F51CF51BF51AF5197816E475E2
:1026D400F001120CBF1209D4601AE51C2401FFE4B6
:1026E400351BFEE4351AFDE435198F1C8E1B8D1A3B
:0C26F400F51980D8AF1CAE1BAD1AAC1954
:0127000022B6
:062AB4008B418A428943B8
:102ABA008B478A488949E94A4B7004FBFAF922E5AF
:102ACA00461546AE45700215454E600F7847E475C7
:102ADA00F001120CBFED120A1A80E4AB41AA42A916
:012AEA0043A8
:012AEB0022C8
:061A3C008B308A31893273
:101A42008B388A39893A85333B85343C85353DE983
:101A52004A4B6008E5354534453370077B007A0010
:101A6200790022D3853C83853D82E53A9582E5392A
:101A720095834019E53D2537F9E53C3536FA8A83E9
:101A82008982D3E53A9582E53995834038E4F53E7B
:101A9200F53FC3E53F9537E53E95365067AB3BAA28
:101AA2003CA93D853F82853E831209EDAB38AA39B8
:101AB200A93A853F82853E83120A2C053FE53F7095
:101AC200D1053E80CD85363E85373FD3E53F940034
:101AD200E53E9400402EAB3BAA3CA93DE53F24FFE6
:101AE200FFE53E34FFFE8F82F5831209EDAB38AA83
:101AF20039A93A8F828E83120A2CE53F153F70CBAB
:0A1B0200153E80C7AB30AA31A932AE
:011B0C0022B6
:1029B6008F6E8E6D8D6C8C6B7818120C38EF120A38
:1029C6001AAF6EAE6DAD6CAC6B7810120C38900011
:1029D60001EF120A2CAF6EAE6DAD6CAC6B780812BF
:1029E6000C38900002EF120A2CE56EFF900003EF00
:0329F600020A2CA6
:101E6800E4F52DF52CF52BF52A1209D4FFE48F2D76
:101E7800F52CF52BF52AAE2CAD2BAC2A7808120CD4
:101E88004B8F2D8E2C8D2B8C2A9000011209EDFF83
:101E9800E52D4FFFE52CFEE52BFDE52A8F2D8E2C39
:101EA8008D2BF52AFC7808120C4B8F2D8E2C8D2B40
:101EB8008C2A9000021209EDFFE52D4FFFE52CFE5C
:101EC800E52BFDE52A8F2D8E2C8D2BF52AFC780825
:101ED800120C4B8F2D8E2C8D2B8C2A9000031209FF
:101EE800EDFFE52D4FFFE52CFEE52BFDE52A8F2DB7
:071EF8008E2C8D2BF52AFC56
:011EFF0022C0
:062EA400900022E0FF2275
:0C2E6B00E4900022F0FDFC7F040227A789
:062EAA0090001FE0FF2272
:082701008F658B668A67896809
:10270900E4FDFC900021E0B401037F0122AF05AE96
:1027190004AD65120026AC06E4FD120026AC06E500
:1027290069FD120026AC06AD6A120026AC06AD079B
:10273900AB66AA67A96885692E856A2F122A7EACBD
:0A27490006AD077F071227A77F01E6
:012753002263
:04284B008D25AB0725
:10284F00E4FDFC900021E0B401037F0122AF05AE4F
:10285F0004AD03120026AC067D01120026AC06E47F
:10286F00FD120026AC067D01120026AC06AD07E571
:10287F00257003FD8006AF05AE047D01120026AC66
:0A288F0006AD077F071227A77F019F
:01289900221C
:02202200A9070C
:10202400E4FCF525F526900021E0B401037F0122AC
:102034007527557528AAE4F529752AB2F52B752C50
:10204400078A2D8B2E892F753001F531753201EDFC
:102054007004F5338003753301E4F536F5377427DE
:102064002537F8E62CFC0537E53770020536640D94
:10207400453670EA8C3475250075260EE4F536F580
:1020840037E5261526AE25700215254E60147427F3
:102094002537F8E6FF12001E0537E53770E30536ED
:0420A40080DF7F0159
:0120A8002215
:021BCB00A90768
:101BCD00E4FCF525F526900021E0B401037F012208
:101BDD007527557528AAE4F529752AB2F52B752CAC
:101BED00078A2D8B2E892F753001F531753201ED58
:101BFD007004F533802EBD01057533018026BD02BD
:101C0D0005753302801EBD03057533038016BD04B3
:101C1D0005753304800EBD05057533058006BD06BB
:101C2D0003753306E4F536F53774272537F8E62CBA
:101C3D00FC0537E53770020536640D453670EA8CC4
:101C4D003475250075260EE4F536F537E52615268F
:101C5D00AE25700215254E601474272537F8E6FF62
:0F1C6D0012001E0537E5377002053680DF7F0154
:011C7C002245
:021F0000AB072D
:101F0200E4FDFC900021E0B401037F0122AF05AEA5
:101F120004AD03120026AC067D02120026AC06E4D4
:101F2200FD120026AC067D04120026C006C007AFD3
:101F32002CAE2BAD2AAC297818120C38AD07D0077D
:101F4200D006120026C006C007AF2CAE2BAD2AACBD
:101F5200297810120C38AD07D007D006120026C01F
:101F620006C007AF2CAE2BAD2AAC297808120C386C
:101F7200AD07D007D006120026AC06C007E52CFF3D
:101F8200E4AD07D007120026AC06AD077F07122783
:031F9200A77F0125
:011F95002229
:021B0D00AD0722
:101B0F00E4FBF52FF530900021E0B401037F0122B3
:101B1F00788C76550876AAE408F60876B208F608A7
:101B2F00760AE52D08F608A62E08A605087602E423
:101B3F0008F6087604AF2CAE2BAD2AAC2978181214
:101B4F000C387898A607AF2CAE2BAD2AAC2978109D
:101B5F00120C387899A607AF2CAE2BAD2AAC29788A
:101B6F0008120C38789AA607E52CFFE408A607F5AB
:101B7F0031F532748C2532F8E62BFB0532E53270E5
:101B8F000205316410453170EA789CA603752F0069
:101B9F00753011E4F531F532E5301530AE2F7002A6
:101BAF00152F4E6014748C2532F8E6FF12001E05B7
:0B1BBF0032E5327002053180DF7F014B
:011BCA0022F8
:082754008F238B248A258926BE
:10275C00E4FDFC900021E0B401037F0122AF05AE43
:10276C0004AD23120026AC067D03120026AC06E550
:10277C0027FD120026AC06AD28120026AC06AD07CC
:10278C00AB24AA25A92685272E85282F122A7EACB4
:0A279C0006AD077F071227A77F0193
:0127A6002210
:0429F9008D25AB0776
:1029FD00E4FDFC900021E0B401037F0122AF05AEA0
:102A0D0004AD03120026AC067D04120026AC06E4CC
:102A1D00FD120026AC067D01120026AC06AD251276
:0D2A2D000026AC06AD077F071227A77F012A
:012A3A002279
:02195400AD07DD
:10195600E4F54FF550900021E0B401037F0122AF7A
:1019660050AE4F1200268E4F8F507D051200268EE8
:101976004F8F50E4FD1200268E4F8F5074FFFFE507
:101986004DFEE54CFDE54BFCE47BFFFAF9F8C3128E
:101996000C2770117D01AF50AE4F1200268E4F8F6F
:1019A60050AD4E807E74FFFFFEE54CFDE54BFCE43A
:1019B6007BFF7AFFF9F8C3120C2770047D0280368C
:1019C6007D04AF50AE4F1200268E4F8F50AF4EAEF5
:1019D6004DAD4CAC4B7818120C38AD07AF50AE4F2E
:1019E6001200268E4F8F50AF4EAE4DAD4CAC4B789D
:1019F60010120C38AD07AF50AE4F1200268E4F8F27
:101A060050AF4EAE4DAD4CAC4B7808120C38AD070E
:101A1600AF50AE4F1200268E4F8F50E54EFFE4AD0D
:101A260007AF501200268E4F8F50AD50AC4F7F0738
:051A36001227A77F014B
:011A3B002288
:082E82008C258D261209D4FFF6
:012E8A002225
:082E8B008C258D261209D4FFED
:012E9300221C
:072E94008C288D29121E6835
:012E9B002214
:102299008F40D3855D83855E82E55B9582E55A959E
:1022A900834015E55B955EFFE55A955DFEC3EF94A6
:1022B9001FEE648094805047C3855D83855E82E507
:1022C9005B9582E55A9583500DC3E55E955BFFE505
:1022D9005D955A4F6029C390001FE55B9582E55AC9
:1022E9009583400D7A007900755901755A00755B1F
:1022F900007859E475F001120CBFE540120A1A2260
:1011A100E4F509F50AF50BF50CC3E570941FE56F3D
:1011B10094005024122D97EFD39400401B12292A3A
:1011C1000570E570AC6F7002056F142423F582740D
:1011D100003CF583EFF080D1C3E5709407E56F948F
:1011E100005003021321C3E570950AFFE56F9509CD
:1011F100FEC3EF9407EE940050030212EA74232514
:101201000AF58274003509F583E06455600A050A20
:10121100E50A70D2050980CE7424250AF58274008E
:101221003509F583E064AA600A050AE50A70B70585
:101231000980B37425250AF58274003509F583E028
:101241006004740280387427250AF5827400350918
:10125100F583E0FE7428250AF58274003509F583CB
:10126100E07C002400FFEC3ECF2407F50CE43FF5C1
:101271000BD3E50C9426E50B940040097403250A71
:10128100F50AE4805DC3E570950AFFE56F9509FEF7
:10129100C3EF950CEE950B40507423250AF97400A9
:1012A1003509FA7B01E50C24FFFDE50B34FFFC1247
:1012B1002C4CE50A250CFDE509350BFC74222DF5B6
:1012C1008274003CF583E06F60097403250AF50A16
:1012D100E4800FAF0AAE09120CF5E50C250AF50AF8
:1012E100E50B3509F5090211E7C3E570950AF570BB
:1012F100E56F9509F56FD3E5709400E56F940040B3
:101301001F7423250AF974003509753301F53489F1
:1013110035856F368570377B017A007923121A3C47
:0113210022A9
:102DB500755901755A00755B00755C01755D007587
:092DC5005E0090001F74FFF02273
:1016E9004100C3004400BF0000000001560001533F
:1016F9000001520001510001550001540001570039
:10170900602A00C4010102040302040205036504FE
:10171900660267016802690271017201730174024C
:0E172900750276027702780279027A027B025C
:102D15007F55122E777FAA122E77E4FF122E777F2A
:102D250004122E77E4FF122E77E4FF122E777F032D
:032D3500022E77F4
:03001E00022E7738
:10132200900000E0FD7F0112284B900071E0FD7FEC
:101332007112284B900087E0FFE48F2CF52BF52AE1
:10134200F5297F03121F009000BBE0FFB4FF05E404
:10135200F515801EEFB4C8057515028015EFB42887
:1013620005751503800CEFB414057515048003751B
:101372001505AD157F651229F9900089E0FEA3E0FD
:10138200FFE48F2C8E2BF52AF5297F66121F009021
:10139200007CE0FD7F6712284B90007FE0FFE48F26
:1013A2002CF52BF52AF5297F68121F00E47B107AB1
:1013B20027F9F890006B120C5E120B71C374329F06
:1013C200FFE48F2CF52BF52AF5297F69121F00788F
:1013D20077E6FD7F7212284B900065E0FFE48F2CC8
:1013E200F52BF52AF5297F04121F00900070E0FD0D
:1013F2007F7312284B90007DE0FEA3E0FFE48F2C68
:101402008E2BF52AF5297F74121F009000A3E0FEAF
:10141200A3E0FFE48F2C8E2BF52AF5297F75121F8E
:1014220000900088E0FFE48F2CF52BF52AF5297F48
:1014320076121F00900074120C5E8F2C8E2B8D2A58
:101442008C297F77121F00900078120C5E8F2C8EF1
:101452002B8D2A8C297F78121F009000B3E0FFE4C5
:101462008F2CF52BF52AF5297F79121F0090008F1A
:10147200E0FFE48F2CF52BF52AF5297F7A121F0065
:1014820090008CE0FFE48F2CF52BF52AF5297F7B69
:03149200021F0036
:102DE500122E82900000EFF0FD7F0112284BBF01EB
:062DF500037F01227F00B4
:012DFB0022B5
:102E1300122E8BAD077F021229F9BF01037F012216
:022E23007F002E
:012E2500228A
:10212D00122E948F268E258D248C23055290008798
:10213D00E0FFE4FCFDFEAB26AA25A924A823C312CB
:10214D000C276032E4F552F527E52725E02478F8D1
:10215D00E6FA08E6FB4A601585262C85252B852495
:10216D002A8523298A2D8B2E7F03121B0D0527E52A
:10217D0027C3940840D3AF26900087EFF0900090CE
:10218D00F0121864900087E0FFE48F2CF52BF52AF0
:0F219D00F5297F03121F00BF01037F01227F007E
:0121AC002210
:102B5600122E948F268E258D248C23900065EFF0FF
:102B6600122554121864900065E0FFE48F2CF52BB3
:102B7600F52AF5297F04121F00BF01037F01227F7A
:012B8600004E
:012B8700222B
:102E4A008C278D287F05122754BF01037F01227F1B
:012E5A000077
:012E5B002254
:101D2400122E8B8F2305519000C3E0B52317E523B2
:101D3400640570359000BBE0FF900088E06F602977
:101D4400E4F5518024E4F551F524E52425E02478D4
:101D5400F8E6FA08E6FB4A6007AD237F65121BCB61
:101D64000524E524C3940840E1E5231460101460BD
:101D74001514601A14601F14602424057028900040
:101D8400BB74FFF080209000BB74C8F080189000F2
:101D9400BB7428F080109000BB7414F0800890008D
:101DA40088E09000BBF09000C3E523F01218649023
:101DB40000C3E0FD7F651229F9BF01037F01227F83
:011DC400001E
:011DC50022FB
:1020A900122E948F268E258D248C23055590008918
:1020B900E0FEA3E0FFE4FCFDAB26AA25A924A823A2
:1020C900C3120C276032E4F555F527E52725E024EE
:1020D90078F8E6FA08E6FB4A601585262C85252B53
:1020E90085242A8523298A2D8B2E7F66121B0D05AF
:1020F90027E527C3940840D3900089E525F0A3E597
:1021090026F0121864900089E0FEA3E0FFE48F2C0A
:102119008E2BF52AF5297F66121F00BF01037F0167
:03212900227F0012
:01212C002290
:10265800122E828F23055390007CE065236024E4CA
:10266800F553F524E52425E02478F8E6FA08E6FB96
:102678004A6007AD237F671220220524E524C3940E
:102688000840E1E52390007C7003F080037401F0BA
:1026980012186490007CE0FD7F6712284BBF01038D
:0526A8007F01227F000C
:0126AD00220A
:1021AD00122E948F268E258D248C23055490007F1E
:1021BD00E0FFE4FCFDFEAB26AA25A924A823C3124B
:1021CD000C276032E4F554F527E52725E02478F84F
:1021DD00E6FA08E6FB4A601585262C85252B852415
:1021ED002A8523298A2D8B2E7F68121B0D0527E545
:1021FD0027C3940840D390007FE526F01218649011
:10220D00007FE0FFE48F2CF52BF52AF5297F68126E
:0A221D001F00BF01037F01227F00B4
:012227002294
:101DC600122E948F268E258D248C2305579000BFC6
:101DD600120C5EAB26AA25A924A823C3120C2760E1
:101DE60032E4F557F527E52725E02478F8E6FA08E2
:101DF600E6FB4A601585262C85252B85242A852316
:101E0600298A2D8B2E7F69121B0D0527E527C39482
:101E16000840D3AF26AE25AD24AC239000BF120CEC
:101E260076C374329526FFE49525FEE49524FDE4F9
:101E36009523FCE47B107A27F9F8120AE690006BEA
:101E4600120C761218649000BF120C5E8F2C8E2B2B
:101E56008D2A8C297F69121F00BF01037F01227F13
:011E6600007B
:011E67002258
:10244000122E828F230556900071E065236024E4EC
:10245000F556F524E52425E02478F8E6FA08E6FBAD
:102460004A6007AD237F711220220524E524C3941E
:102470000840E1E5237006900071F0801190007C27
:10248000E0B40104787676019000717401F0900058
:1024900071E0FD7F7112284BBF01037F01227F0095
:0124A0002219
:10289A00122E828F23E5237877666022E4F524E5F9
:1028AA002425E02478F8E6FA08E6FB4A6007AD2317
:1028BA007F721220220524E524C3940840E1E5230F
:1028CA0078777003F680027601AD237F7212284B67
:0828DA00BF01037F01227F0012
:0128E20022D3
:102DFC00122E82900070EFF0FD7F7312284BBF01F2
:062E0C00037F01227F009C
:012E1200229D
:102B8800122E948F268E258D248C239000B3EFF07F
:102B98001224FC1218649000B3E0FFE48F2CF52B8C
:102BA800F52AF5297F79121F00BF01037F01227FD3
:012BB800001C
:012BB90022F9
:102BBA00122E948F268E258D248C2390008FEFF071
:102BCA001225AC12186490008FE0FFE48F2CF52BCD
:102BDA00F52AF5297F7A121F00BF01037F01227FA0
:012BEA0000EA
:012BEB0022C7
:102C1D00122E948F268E258D248C2390008CEFF010
:102C2D0012260290008CE0FFE48F2CF52BF52AF58F
:0E2C3D00297F7B121F00BF01037F01227F0051
:012C4B002266
:061495008B1D8A1E891F59
:10149B00EF120CCF14D301150202151203152204FF
:1014AB00153205154265155266156267157168157B
:1014BB008069158F71159E7215AD7315BC7915CB9F
:1014CB007A15DA7B000015EBAB1DAA1EA91FAD2107
:1014DB00AC20122DE58F22E522640160030215F08A
:1014EB0090009EE004F0E0C3940550030215F0E475
:1014FB00F0122D150215F0AB1DAA1EA91FAD21ACC4
:10150B0020122E130215E7AB1DAA1EA91FAD21AC8D
:10151B002012212D0215E7AB1DAA1EA91FAD21AC70
:10152B0020122B560215E7AB1DAA1EA91FAD21AC2D
:10153B0020122E4A0215E7AB1DAA1EA91FAD21AC26
:10154B0020121D240215E7AB1DAA1EA91FAD21AC4D
:10155B00201220A90215E7AB1DAA1EA91FAD21ACB5
:10156B00201226588076AB1DAA1EA91FAD21AC20D8
:10157B001221AD8067AB1DAA1EA91FAD21AC201295
:10158B001DC68058AB1DAA1EA91FAD21AC2012246D
:10159B00408049AB1DAA1EA91FAD21AC2012289A71
:1015AB00803AAB1DAA1EA91FAD21AC20122DFC80C9
:1015BB002BAB1DAA1EA91FAD21AC20122B88801CA2
:1015CB00AB1DAA1EA91FAD21AC20122BBA800DABEF
:1015DB001DAA1EA91FAD21AC20122C1D8F2280002D
:0715EB00E490009EF0AF2226
:0115F20022D6
:032EB0007F152269
:101864007F007E2F122CF07F107E27122E38E47B0F
:10187400E87A03F9F890006B120C5E120B71780889
:10188400120C387D007C2F122CC97F647E00122E2E
:1018940038E47BE87A03F9F890006B120C5E120BC3
:1018A40071E47D017C2F122CC97F647E00122E38D6
:1018B4009000BBE0FF7D027C2F122CC97F647E0068
:1018C400122E38900089E0FF7D037C2F122CC97FF3
:1018D400647E00122E38900089A3E0FF7D047C2FE3
:1018E400122CC97F647E00122E38900087E0FF7DA1
:1018F400057C2F122CC97F647E00122E3890007F45
:10190400E0FF7D067C2F122CC97F647E00122E38E6
:1019140090007CE0FF7D077C2F122CC97F647E0041
:10192400122E38900065E0FF7D087C2F122CC97FB1
:10193400647E00122E387F807E2F122CF07F107E62
:0F19440027122E387D807C2FE4FF122CC9D2AFE2
:011953002271
:0F2E5C003577676671726F3400312E302E30007B
:0317370001580056
:1000260074482FF974003EFA7B01ED120A1A0FBFCD
:0300360000010EB8
:0100390022A4
:062A7800AF157E007BFF9C
:0A2A7E008E298F2A8B2B8A2C892DBC
:102A880074482FF974003EFA7B01852B33852C346A
:102A9800852D35852E36852F37121A3CE52F252AA8
:0B2AA800F52AE52E3529F529FEAF2A9E
:012AB3002200
:102A3B008B2F8A3089318C328D33E94A4B602DE5EF
:102A4B003345326027E5331533AE32700215324E03
:102A5B00601AAB2FAA30A9311209D4FF12001E74D1
:0D2A6B00012531F531E43530F53080D922F8
:0A2C4C008B2F8A3089318C328D33D2
:102C5600E4FFFDFCC3ED9533EC95325015782FE477
:102C660075F001120CBF1209D42FFF0DBD00010C27
:022C760080E2FA
:012C78002239
:0427A7008C2D8D2EBA
:1027AB009000427455F0A374AAF0E4A3F0A3EFF0E9
:1027BB00E52DA3F0E52EA3F02407F52EE4352DF53A
:1027CB002D7B017A007942E52E24FFFDE52D34FFA8
:1027DB00FC122C4C7441252EF5827400352DF5839B
:0F27EB00EFF07B017A007942AD2EAC2D022A3B34
:0423DA008C718D7203
:1023DE0074022572F572E43571F5719000427455F0
:1023EE00F0A374AAF0E4A3F0A3EFF0E571A3F0E577
:1023FE0072A3F0A374FFF0A3F074072572F572E4D4
:10240E003571F5717B017A007942E57224FFFDE5A5
:10241E007134FFFC122C4C74412572F58274003518
:10242E0071F583EFF07B017A007942AD72AC7102E7
:02243E002A3B37
:102D5900E4FFE558700AFEFD120026755801800748
:102D69007E007D01120026EFFD7C00E4FF0227A70B
:102AEC00E4F5157BFF7A2E795C1226AE8E2E8F2F95
:102AFC007A2E795C122A788F157BFF7A2E796512E3
:102B0C0026AE8E2E8F2F7A2E7965122A788F15EF9E
:082B1C00FD7C007F010227A7E8
:082E9C00E4FDFC7F020227A700
:022D38008F1CEE
:102D3A00122EB0E4FEEEC39F501275F002EE900020
:0E2D4A00C4120CB3E0651C60030E80E9AF06F6
:012D58002258
:0624A1008B158A16891755
:1024A7001209D4F5189000011209EDF519900002F0
:1024B7001209ED751B00F51A9000031209ED251B93
:1024C700F51BE4351AF51AAF18122D3875F002EF1F
:1024D7009000C5120CB3E0651960037F0022AB15AD
:1024E700E5172404F9E43516FA851A20851B21AF70
:0424F700181214950E
:0124FB0022BE
:040CF5008E0D8F0EC3
:100CF90074262FF58274003EF583E0FF120CCF0DA8
:100D090024000D27010D2A020D2D030D46040D4D5A
:100D1900060F61080DE8B400000F64022D59022A7C
:100D2900EC022E9C7429250EF5827400350DF5838D
:100D3900E090001FF0E4FDFC7F030227A79000224A
:100D49007401F0227427250EF5827400350DF583A0
:100D5900E0751400F5137428250EF5827400350D1D
:100D6900F583E02514F514E43513F513E4F511F5CD
:100D790012C3E5129514E51195134003020F64E5BA
:100D89000E2512FDE50D3511FC742B2DF58274002D
:100D99003CF583E0751000F50F742C2DF582740075
:100DA9003CF583E02510F510E4350FF50F7429257E
:100DB9000EF97400350DFA7B01E92512F9EA3511AE
:100DC900FA1224A1BF0103121864E5102404FFE4F8
:100DD900350FFEEF2512F512EE3511F511809274DB
:100DE90027250EF5827400350DF583E0751400F59D
:100DF900137428250EF5827400350DF583E025144A
:100E0900F514E43513F513742A250EF582740035AB
:100E19000DF583E0F8E47979F7E819F7742B250ED5
:100E2900F5827400350DF583E0787926F618E436F5
:100E3900F6742C250EF5827400350DF583E0F8E47F
:100E4900797BF7E819F7742D250EF5827400350DB5
:100E5900F583E0787B26F618E436F6742E250EF530
:100E6900827400350DF583E0F8E4797DF7E819F728
:100E7900742F250EF5827400350DF583E0787D26F3
:100E8900F618E436F67430250EF5827400350DF542
:100E990083E0F8E4797FF7E819F77431250EF582D4
:100EA9007400350DF583E0787F26F618E436F6747C
:100EB90032250EF5827400350DF583E0F8E4798169
:100EC900F7E819F77433250EF5827400350DF583AB
:100ED900E0788126F618E436F67434250EF5827426
:100EE90000350DF583E0F8E47983F7E819F77435EF
:100EF900250EF5827400350DF583E0788326F61802
:100F0900E436F67436250EF5827400350DF583E066
:100F1900F8E47985F7E819F77437250EF582740036
:100F2900350DF583E0788526F618E436F67438250C
:100F39000EF5827400350DF583E0F8E47987F7E85A
:100F490019F77439250EF5827400350DF583E078AB
:0B0F59008726F618E436F62212132259
:010F6400226A
:102D9700E55C855D83855E826559700AE55B6582C2
:0E2DA7007004E55A658360037F01227F0022DD
:10292A00AB5CAA5DA95EE559855A83855B82655CC5
:10293A00700AE55E65827004E55D65836028C39070
:10294A00001FE55E9582E55D9583400D7A0079006A
:10295A00755C01755D00755E00785CE475F00112C6
:06296A000CBF1209D4FFAE
:012970002244
:10077D000209BFE86480F8E933E83360110460F0E2
:10078D00ED33EC337009E8FCE9FDEAFEEBFF2204E2
:10079D0060DED3EB9FEA9EE99DE8C2E78CF0C2F7DD
:1007AD0095F0400CE8CCF8E9CDF9EACEFAEBCFFBA9
:1007BD0012098A85D0F05804700320D5B3E804706F
:1007CD00075002B2D50209C992D5EC0460F7E4CC0A
:1007DD00C0E0C398F8603B94186008400DD0E0FB72
:1007ED000209A1E4FBFAC9FC8028E830E406E4C95B
:1007FD00FBE4CAFCE830E305E4C9CACBFCE85407C6
:10080D006010F8C3E913F9EA13FAEB13FBEC13FCD0
:10081D00D8F130F52FC3E49CFCEF9BFFEE9AFEED73
:10082D0099FDD0E0FBEF4E4D4C701222DB03020917
:10083D00C6EC2CFCEF33FFEE33FEED33FDED30E770
:10084D00EB0209A1EF2BFFEE3AFEED39FDD0E0FBF7
:10085D0050130BBB00030209C9ED13FDEE13FEEFA0
:08086D0013FFEC13FC0209A1CA
:100875000209C9EC5D046005E8590470030209BF6B
:1008850012098A580460F6EC4860F2EC7004FDFE2B
:10089500FF22C860DB2481C85009C3986002500656
:1008A5000209C69850CAF582E9294B4A7005AB8200
:1008B5000209B575F0007C1A7880C3EF9BEE9AEDBE
:1008C50099400DC3EF9BFFEE9AFEED99FDE842F0CE
:1008D500DC23ACF0D0E0FFD0E0FED0E0FDAB822021
:1008E500E7101BEB60BAEC2CFCEF33FFEE33FEEDAB
:1008F50033FD0209A1E803F830E705C0F075F00003
:10090500EF2FFFEE33FEED33FD40B830E7C280AA8E
:1009150075F020800E75F010800575F0087D007E5D
:10092500007F003392D530D503120C03EC33401011
:10093500EF33FFEE33FEED33FDEC33FCD5F0ED2266
:0E094500E5F0247EA2D513CC92E7CDCEFF22A2
:10095300EDD2E7CD33EC3392D524814006E4FFFE9C
:10096300FDFC22FCE4CFCECDCC24E0501174FF80FB
:10097300EDC3CC13CCCD13CDCE13CECF13CF047098
:07098300F030D5DE020C0389
:10098A00E9D2E7C933E833F892D5EDD2E7CD33ECB3
:07099A0033FC5002B2D5222C
:1009A100EC30E7100FBF000C0EBE00080DBD0004B7
:1009B1000BEB6014A2D5EB13FCED92E7FD2274FF63
:1009C100FCFDFEFF22E480F8A2D574FF13FC7D80BC
:0309D100E480EFD0
:101FA200020F65E493A3F8E493A34003F68001F2E1
:101FB20008DFF48029E493A3F85407240CC8C33340
:101FC200C4540F4420C8834004F456800146F6DF0F
:101FD200E4800B01020408102040809015F3E47E97
:101FE200019360BCA3FF543F30E509541FFEE49304
:101FF200A360010ECF54C025E060A840B8E493A3CB
:10200200FAE493A3F8E493A3C8C582C8CAC583CAF5
:10201200F0A3C8C582C8CAC583CADFE9DEE780BEAD
:01173A0000AE
:1009D400BB010689828A83E0225002E722BBFE0221
:0909E400E32289828A83E4932254
:1009ED00BB010CE58229F582E5833AF583E02250BF
:1009FD0006E92582F8E622BBFE06E92582F8E22209
:0D0A0D00E58229F582E5833AF583E4932222
:100A1A00BB010689828A83F0225002F722BBFE01BB
:020A2A00F322B5
:100A2C00F8BB010DE58229F582E5833AF583E8F000
:100A3C00225006E92582C8F622BBFE05E92582C8AC
:020A4C00F22294
:100A4E00EF8DF0A4A8F0CF8CF0A428CE8DF0A42EBC
:020A5E00FE2276
:100A6000BC000BBE0029EF8DF084FFADF022E4CC7A
:100A7000F875F008EF2FFFEE33FEEC33FCEE9DEC43
:100A8000984005FCEE9DFE0FD5F0E9E4CEFD22ED89
:100A9000F8F5F0EE8420D21CFEADF075F008EF2FD3
:100AA000FFED33FD4007985006D5F0F222C398FDC4
:050AB0000FD5F0EA2261
:100AB500C5F0F8A3E028F0C5F0F8E58215827002CC
:060AC5001583E038F02269
:0D0ACB00EF2BFFEE3AFEED39FDEC38FC227A
:0E0AD800C3EF9BFFEE9AFEED99FDEC98FC2219
:100AE600E88FF0A4CC8BF0A42CFCE98EF0A42CFCAF
:100AF6008AF0EDA42CFCEA8EF0A4CDA8F08BF0A42D
:100B06002DCC3825F0FDE98FF0A42CCD35F0FCEB8B
:100B16008EF0A4FEA9F0EB8FF0A4CFC5F02ECD3950
:0F0B2600FEE43CFCEAA42DCE35F0FDE43CFC22BD
:100B350075F008758200EF2FFFEE33FECD33CDCC77
:100B450033CCC58233C5829BED9AEC99E5829840FA
:100B55000CF582EE9BFEED9AFDEC99FC0FD5F0D6D7
:100B6500E4CEFBE4CDFAE4CCF9A88222B800C1B901
:100B75000059BA002DEC8BF084CFCECDFCE5F0CB3F
:100B8500F97818EF2FFFEE33FEED33FDEC33FCEB78
:100B950033FB10D703994004EB99FB0FD8E5E4F933
:100BA500FA227818EF2FFFEE33FEED33FDEC33FC20
:100BB500C933C910D7059BE99A4007EC9BFCE99A14
:100BC500F90FD8E0E4C9FAE4CCFB2275F010EF2F59
:100BD500FFEE33FEED33FDCC33CCC833C810D70759
:100BE5009BEC9AE899400AED9BFDEC9AFCE899F894
:0E0BF5000FD5F0DAE4CDFBE4CCFAE4C8F92227
:0E0C0300C3E49FFFE49EFEE49DFDE49CFC2202
:100C1100EB9FF5F0EA9E42F0E99D42F0EC6480C85A
:060C210064809845F022FA
:100C2700EB9FF5F0EA9E42F0E99D42F0E89C45F023
:010C3700229A
:100C3800E8600FECC313FCED13FDEE13FEEF13FF9A
:030C4800D8F122BE
:100C4B00E8600FEFC333FFEE33FEED33FDEC33FC07
:030C5B00D8F122AB
:0C0C5E00E0FCA3E0FDA3E0FEA3E0FF2209
:0C0C6A00E0F8A3E0F9A3E0FAA3E0FB220D
:0C0C7600ECF0A3EDF0A3EEF0A3EFF022F1
:100C8200A8828583F0D083D082120C99120C99121B
:100C92000C99120C99E473E493A3C583C5F0C58340
:100CA200C8C582C8F0A3C583C5F0C583C8C582C8BC
:010CB200221F
:0C0CB300A42582F582E5F03583F583224C
:100CBF00FAE6FB0808E6F925F0F618E6CA3AF62236
:100CCF00D083D082F8E4937012740193700DA3A3B4
:100CDF0093F8740193F5828883E4737402936860C8
:060CEF00EFA3A3A380DFC8
:00000001FF
