:03000000021F12CA
:0C1F1200787FE4F6D8FD75819C021F5911
:10145C00045F00000000410063004100980C410053
:10146C00994044009000000000440074000000000B
:10147C00440078000000004400AD0000000044006F
:10148C009D000000004400B40000000042008400F5
:10149C000142007200004100680041008D004200D2
:1014AC00B9000042006900004100610841009B0046
:1014BC004100BB000163000164004100B200410027
:1014CC00710041007C014100870A41009C004100F1
:1014DC009A0A41008C0041008E00420066000041D7
:1014EC00006200028A00000288000041006F004187
:1014FC0000B10041008F00107800000000000000D7
:10150C0000000000000000000001740001750001E3
:10151C007700017600017300410065004100700006
:10152C0042007D00004A00A3000000000000000003
:06153C0000004100640004
:10299C008E098F0A8B0B8A0C890DAF051DEF6021F8
:1029AC00050AE50AAE097002050914F5828E83E466
:1029BC0093FF780BE475F001120CBFEF120A1A802A
:0229CC00D9220E
:102BFD00E4FDFCC3ED9FEC9E50070DBD00010C8064
:012C0D00F2D4
:012C0E0022A3
:102A5E008F828E83E4F562F561F560F55FAF82AE2D
:102A6E0083E4FCFDAB62AA61A960A85FC3120C27C8
:082A7E00500543BD1080E62263
:102C0F00E4FDFCC3ED9FEC9E50070DBD00010C8051
:012C1F00F2C2
:012C20002291
:10000300758E5190FE917401F0A37410F075BD5F6D
:0700130090FEA07420F02212
:102B3600E490FE80F0758901758DFA758BCB43A8FC
:0E2B460008438840758CCB758AEB43881022BB
:102A000090FF10E054F04408F090FF02E054F044CE
:102A100002F0D28490FFA07420F0A37404F075CC6F
:102A20000675CEFF75CD98759E0275981043A81057
:012A30002283
:102BA50043B40343B4807F147E00122BFD75B50139
:072BB50090FE9B744BF0221F
:102B720090FF08E04488F090FF00E0540F4430F0EA
:0A2B820090FF11E054F04403F0222C
:0B2C4E008F99E59830E1FB5398FD22C0
:1027E9008FB543B440E5B430E5FB53B4DF7F647E75
:1027F90000122BFDE4FBFAF943B440E5B430E5FBE4
:1028090053B4DFE5B62BFBE5B73AFA7F147E001225
:102819002BFD09B910E275B501A9027F647E00128A
:042829002BFDAF01D3
:01282D002288
:101592007B017A0079A37D0A7F007E2F12299C901D
:1015A20000A3E0FFE4FCFDFE90006B120C769000BD
:1015B2006B120C5E7808120C4B90006B120C76903A
:1015C200006B120C6A9000A4E0FFE4FCFDFE120A1C
:1015D200CB90006B120C7690006B120C5EE47BE8F1
:1015E2007A03F9F8120AE690006B120C76E47F3067
:1015F2007E75FDFC90006B120C6AC3120C2740141E
:101602007F007E097D3D7C0090006B120C6AD31234
:101612000C27400A90006B120C8200009C40900044
:10162200A5E09000B8F0700280079000B8E0B4FE28
:101632000374FFF09000A6E0FF900089E4F0A3EFAE
:10164200F0E0F8E4F0E8900089F09000A7E0FF9065
:101652000089E48FF0120AB5900089E0FEA3E0FF52
:101662004E6009D3EF9408EE94074009900089E494
:10167200F0A37405F09000A8E0900087F090008E2F
:10168200F09000A9E090007FF06006E0D394FF4064
:101692000690007F7401F09000AAE0540190007C53
:1016A200F07B017A0079647D017F807E2F12299C74
:0916B200900064E090008CF0222D
:10003E00E563600302073143B440E5B430E5FB539A
:10004E00B4DF85B70985B60A900072E475F0011227
:10005E000AB59000B4120C6AAE09AF0AE4FCFD12A8
:10006E000ACB9000B4120C769000A1E0FEA3E0FF44
:10007E00C3950AEE9509500DC3E50A9FF50AE509E9
:10008E009EF509800BC3EF950AF50AEE9509F50961
:10009E00900078120C6AAE09AF0AE4FCFD120ACB8E
:1000AE00900078120C76900072E05401FEA3E04EA0
:1000BE007061D39000BAE094009000B9E0940040D3
:1000CE001790009AE094645042E02402F0E0D3943A
:1000DE006440387464F08033900069E07004A3E0EB
:1000EE006401702F900087E0FF90009AE0FED39F8E
:1000FE004019EE94024004E024FEF090009AE0C312
:10010E009F5008900087E090009AF090009AE0FFD0
:10011E00122672C3900072E09420500302077C43B3
:10012E00BD10E4F0A3F090009BE004F090009D124F
:10013E000C5E9000B4120C6A120ACB90009D120C49
:10014E007690009BE0C394084037E4F090009D1237
:10015E000C5E7810120C3890009D120C7690009D5B
:10016E00120C5E9000A1EE8FF0120AB59000A1E085
:10017E00C313F0A3E013F090009D120C8200000058
:10018E0000900061E0C394085005E004F0805690A2
:10019E0000B9E07002A3E0704C7F0A1227E99000CC
:1001AE0088EFF09000B3E0FE2402FDE433FCEFD3C1
:1001BE009DEC6480F8748098501E900088E02402B4
:1001CE00FDE433FCEED39DEC6480F8748098500807
:1001DE009000B3E0900088F0900088E09000B3F0BB
:1001EE00E4900061F0E4FFFEFDFC900074120C6AD6
:1001FE00C3120C277041900078120C5EEF2488FF1A
:10020E00EE3413FEE43DFDE43CFC900074120C76DB
:10021E00900084E07002A3E0701D7F407E427D0F4F
:10022E00FC900074120C6AD3120C27400A900074D2
:10023E00120C82000F4240900063E070169000781E
:10024E00120C5E900090120C76900080120C8200C0
:10025E00000001900080120C5E900078120C6A1261
:10026E000ACB900090120C6AC3120C2740030205B1
:10027E0007900080120C5E900090120C6A120ACB4E
:10028E00900078120C6AC3120C27400302050790E7
:10029E000063E004F09000AD120C5E900078120C3A
:1002AE006A120ACB9000AD120C76900063E0FFFB51
:1002BE00E4FAF9F89000AD120C5E120B71900090FA
:1002CE00120C76900090120C5E7803120C3890008F
:1002DE0080120C76E47F207E4EFDFC900080120C86
:1002EE006AC3120C27500A900080120C8200004E36
:1002FE0020E47F607EEAFDFC900080120C6AD3122F
:10030E000C27400A900080120C820000EA609000D8
:10031E0090120C5E900074120C6AD3120C27404C93
:10032E00900090120C6A900074120C5E120AD89013
:10033E0000B4120C767F807E387D017C009000B474
:10034E00120C6AD3120C2740089000987406F080A5
:10035E0021E47F407E9CFDFC9000B4120C6AD31207
:10036E000C2790009840087409F08006900098744D
:10037E000CF0900098E0FF900063E0C39F407B90EC
:10038E000074120C5E900090120C6AC3120C27506F
:10039E0069900099E094105003020516900098E0C1
:1003AE00D394095008900090120C5E8044900090F7
:1003BE00120C5EEF24A0FFEE340FFEE43DFDE43C94
:1003CE00FC900074120C6AD3120C27402A90007411
:1003DE00120C5E900090120C6A120ACB90007412EE
:1003EE000C76900074120C5EE47B02FAF9F8120B94
:1003FE0071900074120C76020507900099E0FF9040
:10040E000063E0C39F5003020516900074120C5E49
:10041E00EF24A0FFEE340FFEE43DFDE43CFC900023
:10042E0090120C6AD3120C2750030204F79000743A
:10043E00120C6A900090120C5E120AD89000B41240
:10044E000C767F007E127D7A7C00900090120C6AF2
:10045E00C3120C2740030204F77F807E1A7D067CB0
:10046E00009000B4120C6AC3120C27507C900099B5
:10047E00E09410400280487FE07E937D047C0090E3
:10048E0000B4120C6AD3120C274008900099741015
:10049E00F0801F7FF07E497D027C009000B4120C2C
:1004AE006AD3120C279000994005740CF0800374E7
:1004BE0008F0900099E0FF900063E0C39F402A90FF
:1004CE000074120C5E900090120C6A120ACB90000F
:1004DE0074120C76900074120C5EE47B02FAF9F83A
:1004EE00120B71900074120C76900099E0FF900040
:1004FE0063E0C39F4012E48004E4900063F0900038
:10050E00AD120C820000000090008DE0D3940040EC
:10051E0066E014F0900094120C5EEF2470FFEE343F
:10052E0017FEE43DFDE43CFC900074120C6AD312FD
:10053E000C27500302069E900094120C5EEF249836
:10054E00FFEE343AFEE43DFDE43CFC900078120CE4
:10055E006AC3120C27400302069E900094120C5E92
:10056E00EF2470FFEE3417FEE43DFDE43CFC9000FA
:10057E0074120C7602069ED3900085E094009000D3
:10058E0084E09400407B74FFF5F0120AB5D390001E
:10059E0085E09400900084E0940040657F007E1218
:1005AE007D7A7C00900074120C6AD3120C27400CDA
:1005BE0090006B120C82000C3500804590006B127F
:1005CE000C5E900074120C6A120ACB9000B4120CDE
:1005DE00767F407E547D897C009000B4120C6AD3E5
:1005EE00120C27401C900074120C6AC374409BFFBF
:1005FE0074549AFE748999FDE498FC90006B120C69
:10060E007690006B120C5E900074120C6A120ACB7C
:10061E00900078120C6AD3120C2740749000B8E048
:10062E00FF900088E0D39F400FD3900085E09400A8
:10063E00900084E0940040589000B9E07002A3E06E
:10064E00700C900074120C5E900094120C76900058
:10065E00B9E4F0A304F07876F690007DE475F0012D
:10066E00120AB590007DE0FEA3E0FFE48F2C8E2BE6
:10067E00F52AF5297F74121E7C9000997408F0E417
:10068E00900069F0A3F0788AF608F67888F608F6F6
:10069E009000A1E0FEA3E0FFE48F2C8E2BF52AF54F
:1006AE00297F75121E7C900088E0FFE48F2CF52BBD
:1006BE00F52AF5297F76121E7C900074120C5E8F3F
:1006CE002C8E2B8D2A8C297F77121E7C900078120F
:1006DE000C5E8F2C8E2B8D2A8C297F78121E7C908F
:1006EE0000B4120C8200000000900078120C820000
:1006FE000000009000B9E0FEA3E0FFD39400EE945A
:10070E0000406B900089E0FCA3E0FDD3EF9DEE9CD2
:10071E00405CE49000B9F0A3F07563017876F6784A
:10072E0073F622900069E4F0A304F0E4F563900000
:10073E0066F0A3F0900062F07FFAFE122A5E90003F
:10074E009D120C8200000000E490009BF090009936
:10075E007440F090008D7402F09000617406F0E425
:0E076E00900063F09000AD120C8200000000BD
:01077C00225A
:10228500E4F50A9000B4120C8200000000E4F509A0
:1022950043B440E5B430E5FB53B4DF9000B4120C11
:1022A5006AAFB6AEB7E4FCFD120ACB9000B4120CCF
:1022B500760509E509B480D87F907E01122A5E90E3
:1022C50000B4120C5E780B120C388F09E509D39413
:1022D5000C400CE509948D5006E50A9414500A0546
:0922E5000AE50AD39450409B2243
:0122EE0022CD
:1022EF009000B4120C8200000000E4F509E4F50C34
:1022FF00F50D43B440E5B430E5FB53B4DF85B70AC1
:10230F0085B60B9000B4120C6AAE0AAF0BE4FCFD5D
:10231F00120ACB9000B4120C76050DE50D70020574
:10232F000CB400CEE50CB420C943BD100509E50976
:10233F00B408BA9000B4120C5E7810120C389000EA
:06234F00A1EEF0A3EFF087
:012355002265
:10247800BF0105E4FCFD80377E007C017DFF120A68
:102488004E1C7D64120A60AC06AD07E412091A8F6F
:102498002A8E298D288C27E4FFFEFD7C3FAB2AAAD3
:1024A80029A928A827120784120953AC06AD07905A
:1024B800FF907411F075DA0175E30175E2FF8CE5A0
:0724C8008DE475E10F7F00B8
:0124CF0022EA
:10267200BF0104E4FE80397E007C007DFF120A4E19
:10268200AC06AD07E412091AE4FBFA79C8784212E3
:1026920008788F0E8E0D8D0C8C0BE4FFFEFD7C3FB7
:1026A200AB0EAA0DA90CA80B120784120953AE0790
:1026B20090FF9C7410F075DEFF8EDF75DD947F0055
:0126C20022F5
:100F6500122B8C120003122B727F64122672122B25
:100F750036122A00122BA575BBAA90FEA774FFF0A6
:100F850053BBF7D2AF7FC87E00122A5E7F6412265C
:100F9500729000B27401F07F0A1227E9900088EF81
:100FA500F09000B3F0C2AF12159290008CE004F0FF
:100FB5007F807E2F122AAD7F107E27122C0F900086
:100FC5008CE0FF7D807C2F122A867F647E00122CA8
:100FD5000FD2AF122285900087E0FF90009AF012A1
:100FE50026727F2C7E01122A5E1222EF9000B41227
:100FF5000C820000000090008CE0C394034005E4DF
:10100500F0122AD27875E6D39402502A18E66401C4
:101015007024F608067F55122C4E7FAA122C4EE43A
:10102500FF122C4E7FB4122C4EE4FF122C4E122CC4
:101035004E7FB3122C4E43BD10E563700B900073C9
:10104500E0541F70031211A190007CE0640160035D
:1010550002114BE564703DF563756401900087E00E
:1010650090009AF090009D120C8200000000E49020
:10107500009BF09000997440F090008D7402F09000
:1010850000617406F0E4900063F09000AD120C82EC
:101095000000000012003ED390006AE0940090002A
:1010A50069E094004036900062E0B4012FE4F090CE
:1010B500006975F001120AB590007FE0FFC390004A
:1010C5006AE09F900069E094004011E4F0A3F0907D
:1010D5000070E064016005E4FF122672D39000BA47
:1010E500E094009000B9E0940040127889E664012C
:1010F50018467009F608F675F001120AB57877E614
:1011050064016003020FFB18E6FF78736670030243
:101115000FFBA6079000B9E4F0A304F0E4F508E599
:1011250008C394084003020FFBE50825E02478F87E
:10113500E6FA08E6FB4A600A900071E0FD7F71124D
:101145001F9E050880D9E4F564900071E07007FFE3
:10115500122672020FFB90008EE0FF122672E4F554
:1011650063900087E090009AF090009D120C820039
:10117500000000E490009BF09000997440F090000E
:101185008D7402F09000617406F0E4900063F090B5
:0C11950000AD120C8200000000020FFBF5
:03001B00021BF9CC
:101BF900C0E0C0F0C083C082C0D075D000C000C0B2
:101C090001C002C003C004C005C006C007AF62AE70
:101C190061AD60AC5FEF2401FFE43EFEE43DFDE40D
:101C29003C8F628E618D60F55F900066E475F0010E
:101C3900120AB5900066E0FEA3E0FFE4FCFD7B60BC
:101C49007AEAF9F8D3120C11500C900066E4F0A36B
:101C5900F090006204F0788B06E618700106C378EC
:101C69008BE694E818E69403401278747601788A32
:101C7900760008760078887600087601D007D006C5
:101C8900D005D004D003D002D001D000D0D0D0826A
:071C9900D083D0F0D0E0324F
:0300230002275B56
:10275B00C0E0C0F0C083C082C0D075D000C000C044
:0D276B0001C002C003C004C005C006C007C5
:0F277800E59830E00AAF991222155398FED2AFC0
:10278700D007D006D005D004D003D002D001D000A6
:0B279700D0D0D082D083D0F0D0E03250
:03003B0002001AA6
:01001A0032B3
:102AAD0053BBF7C280E5BB20E3F6D280C2AF75FD04
:102ABD00F075FC0F8EFA8FF975FDD275FC2D75FD35
:052ACD00E175FC1E2272
:102A860053BBF7C280E5BB20E3F6D280C2AF8FFB13
:102A960075FDF075FC0F8CFA8DF975FDB475FC4B60
:072AA60075FDE175FC1E2225
:04154200026F000034
:1021A400EFC39430400CEFD39439500674D02FFF12
:1021B4008022EFC39441400CEFD394465006EF24A1
:1021C400C9FF8010EFC39461400AEFD394665004B2
:1021D400EF24A9FFEF540FC454F0FFEDC394304033
:1021E4000CEDD39439500674D02DFD801EEDC394AC
:1021F400414008EDD394465002800CEDC3946140F5
:102204000AEDD394665004ED24A9FDED540F420762
:0122140022A7
:062526008B168A178918CC
:10252C00E4F51CF51BF51AF519E94A4B7005FFFE8D
:10253C00FDFC22E4F51CF51BF51AF5197816E4756B
:10254C00F001120CBF1209D4601AE51C2401FFE43F
:10255C00351BFEE4351AFDE435198F1C8E1B8D1AC4
:0C256C00F51980D8AF1CAE1BAD1AAC19DD
:012578002240
:06292C008B418A42894341
:102932008B478A488949E94A4B7004FBFAF922E538
:10294200461546AE45700215454E600F7847E47550
:10295200F001120CBFED120A1A80E4AB41AA42A99F
:012962004331
:012963002251
:0619B8008B308A318932F8
:1019BE008B388A39893A85333B85343C85353DE908
:1019CE004A4B6008E5354534453370077B007A0095
:1019DE00790022D3853C83853D82E53A9582E539AF
:1019EE0095834019E53D2537F9E53C3536FA8A836E
:1019FE008982D3E53A9582E53995834038E4F53E00
:101A0E00F53FC3E53F9537E53E95365067AB3BAAAC
:101A1E003CA93D853F82853E831209EDAB38AA393C
:101A2E00A93A853F82853E83120A2C053FE53F7019
:101A3E00D1053E80CD85363E85373FD3E53F9400B8
:101A4E00E53E9400402EAB3BAA3CA93DE53F24FF6A
:101A5E00FFE53E34FFFE8F82F5831209EDAB38AA07
:101A6E0039A93A8F828E83120A2CE53F153F70CB2F
:0A1A7E00153E80C7AB30AA31A93233
:011A8800223B
:10282E008F6E8E6D8D6C8C6B7818120C38EF120AC1
:10283E001AAF6EAE6DAD6CAC6B7810120C3890009A
:10284E0001EF120A2CAF6EAE6DAD6CAC6B78081248
:10285E000C38900002EF120A2CE56EFF900003EF89
:03286E00020A2C2F
:101DE400E4F52DF52CF52BF52A1209D4FFE48F2DFB
:101DF400F52CF52BF52AAE2CAD2BAC2A7808120C59
:101E04004B8F2D8E2C8D2B8C2A9000011209EDFF07
:101E1400E52D4FFFE52CFEE52BFDE52A8F2D8E2CBD
:101E24008D2BF52AFC7808120C4B8F2D8E2C8D2BC4
:101E34008C2A9000021209EDFFE52D4FFFE52CFEE0
:101E4400E52BFDE52A8F2D8E2C8D2BF52AFC7808A9
:101E5400120C4B8F2D8E2C8D2B8C2A900003120983
:101E6400EDFFE52D4FFFE52CFEE52BFDE52A8F2D3B
:071E74008E2C8D2BF52AFCDA
:011E7B002244
:062C7B00900022E0FF22A0
:0C2C4200E4900022F0FDFC7F0402261F3D
:062C810090001FE0FF229D
:082579008F658B668A67896893
:10258100E4FDFC900021E0B401037F0122AF05AE20
:1025910004AD65120026AC06E4FD120026AC06E58A
:1025A10069FD120026AC06AD6A120026AC06AD0725
:1025B100AB66AA67A96885692E856A2F1228F6ACD1
:0A25C10006AD077F0712261F7F01F9
:0125CB0022ED
:0426C3008D25AB07AF
:1026C700E4FDFC900021E0B401037F0122AF05AED9
:1026D70004AD03120026AC067D01120026AC06E409
:1026E700FD120026AC067D01120026AC06AD07E5FB
:1026F700257003FD8006AF05AE047D01120026ACF0
:0A27070006AD077F0712261F7F01B1
:0127110022A5
:021F9E00A90791
:101FA000E4FCF525F526900021E0B401037F012231
:101FB0007527557528AAE4F529752AB2F52B752CD5
:101FC000078A2D8B2E892F753001F531753201ED81
:101FD0007004F5338003753301E4F536F537742763
:101FE0002537F8E62CFC0537E53770020536640D19
:101FF000453670EA8C3475250075260EE4F536F505
:1020000037E5261526AE25700215254E6014742777
:102010002537F8E6FF12001E0537E53770E3053671
:0420200080DF7F01DD
:012024002299
:021B4700A907EC
:101B4900E4FCF525F526900021E0B401037F01228C
:101B59007527557528AAE4F529752AB2F52B752C30
:101B6900078A2D8B2E892F753001F531753201EDDC
:101B79007004F533802EBD01057533018026BD0241
:101B890005753302801EBD03057533038016BD0438
:101B990005753304800EBD05057533058006BD0640
:101BA90003753306E4F536F53774272537F8E62C3F
:101BB900FC0537E53770020536640D453670EA8C49
:101BC9003475250075260EE4F536F537E526152614
:101BD900AE25700215254E601474272537F8E6FFE7
:0F1BE90012001E0537E5377002053680DF7F01D9
:011BF80022CA
:021E7C00AB07B2
:101E7E00E4FDFC900021E0B401037F0122AF05AE2A
:101E8E0004AD03120026AC067D02120026AC06E459
:101E9E00FD120026AC067D04120026C006C007AF58
:101EAE002CAE2BAD2AAC297818120C38AD07D00702
:101EBE00D006120026C006C007AF2CAE2BAD2AAC42
:101ECE00297810120C38AD07D007D006120026C0A4
:101EDE0006C007AF2CAE2BAD2AAC297808120C38F1
:101EEE00AD07D007D006120026AC06C007E52CFFC2
:101EFE00E4AD07D007120026AC06AD077F07122609
:031F0E001F7F0131
:011F110022AD
:021A8900AD07A7
:101A8B00E4FBF52FF530900021E0B401037F012238
:101A9B00788C76550876AAE408F60876B208F6082C
:101AAB00760AE52D08F608A62E08A605087602E4A8
:101ABB0008F6087604AF2CAE2BAD2AAC2978181299
:101ACB000C387898A607AF2CAE2BAD2AAC29781022
:101ADB00120C387899A607AF2CAE2BAD2AAC29780F
:101AEB0008120C38789AA607E52CFFE408A607F530
:101AFB0031F532748C2532F8E62BFB0532E532706A
:101B0B000205316410453170EA789CA603752F00ED
:101B1B00753011E4F531F532E5301530AE2F70022A
:101B2B00152F4E6014748C2532F8E6FF12001E053B
:0B1B3B0032E5327002053180DF7F01CF
:011B4600227C
:0825CC008F238B248A25892648
:1025D400E4FDFC900021E0B401037F0122AF05AECD
:1025E40004AD23120026AC067D03120026AC06E5DA
:1025F40027FD120026AC06AD28120026AC06AD0756
:10260400AB24AA25A92685272E85282F1228F6ACC7
:0A26140006AD077F0712261F7F01A5
:01261E002299
:042871008D25AB07FF
:10287500E4FDFC900021E0B401037F0122AF05AE29
:1028850004AD03120026AC067D04120026AC06E456
:10289500FD120026AC067D01120026AC06AD251200
:0D28A5000026AC06AD077F0712261F7F013D
:0128B2002203
:0218D000AD0762
:1018D200E4F54FF550900021E0B401037F0122AFFF
:1018E20050AE4F1200268E4F8F507D051200268E6D
:1018F2004F8F50E4FD1200268E4F8F5074FFFFE58C
:101902004DFEE54CFDE54BFCE47BFFFAF9F8C31212
:101912000C2770117D01AF50AE4F1200268E4F8FF3
:1019220050AD4E807E74FFFFFEE54CFDE54BFCE4BE
:101932007BFF7AFFF9F8C3120C2770047D02803610
:101942007D04AF50AE4F1200268E4F8F50AF4EAE79
:101952004DAD4CAC4B7818120C38AD07AF50AE4FB2
:101962001200268E4F8F50AF4EAE4DAD4CAC4B7821
:1019720010120C38AD07AF50AE4F1200268E4F8FAB
:1019820050AF4EAE4DAD4CAC4B7808120C38AD0793
:10199200AF50AE4F1200268E4F8F50E54EFFE4AD92
:1019A20007AF501200268E4F8F50AD50AC4F7F07BD
:0519B20012261F7F0159
:0119B700220D
:082C59008C258D261209D4FF21
:012C61002250
:082C62008C258D261209D4FF18
:012C6A002247
:072C6B008C288D29121DE4E5
:012C7200223F
:102215008F40D3855D83855E82E55B9582E55A9522
:10222500834015E55B955EFFE55A955DFEC3EF942A
:102235001FEE648094805047C3855D83855E82E58B
:102245005B9582E55A9583500DC3E55E955BFFE589
:102255005D955A4F6029C390001FE55B9582E55A4D
:102265009583400D7A007900755901755A00755BA3
:10227500007859E475F001120CBFE540120A1A22E4
:1011A100E4F509F50AF50BF50CC3E570941FE56F3D
:1011B10094005024122B54EFD39400401B1227A209
:1011C1000570E570AC6F7002056F142423F582740D
:1011D100003CF583EFF080D1C3E5709407E56F948F
:1011E100005003021321C3E570950AFFE56F9509CD
:1011F100FEC3EF9407EE940050030212EA74232514
:101201000AF58274003509F583E06455600A050A20
:10121100E50A70D2050980CE7424250AF58274008E
:101221003509F583E064AA600A050AE50A70B70585
:101231000980B37425250AF58274003509F583E028
:101241006004740280387427250AF5827400350918
:10125100F583E0FE7428250AF58274003509F583CB
:10126100E07C002400FFEC3ECF2407F50CE43FF5C1
:101271000BD3E50C9426E50B940040097403250A71
:10128100F50AE4805DC3E570950AFFE56F9509FEF7
:10129100C3EF950CEE950B40507423250AF97400A9
:1012A1003509FA7B01E50C24FFFDE50B34FFFC1247
:1012B1002A31E50A250CFDE509350BFC74222DF5D3
:1012C1008274003CF583E06F60097403250AF50A16
:1012D100E4800FAF0AAE09120CF5E50C250AF50AF8
:1012E100E50B3509F5090211E7C3E570950AF570BB
:1012F100E56F9509F56FD3E5709400E56F940040B3
:101301001F7423250AF974003509753301F53489F1
:1013110035856F368570377B017A0079231219B8CC
:0113210022A9
:102B8C00755901755A00755B00755C01755D0075B2
:092B9C005E0090001F74FFF0229E
:101546004100C0004400BC000000000156000153E9
:1015560000015200015100015500015400015700DD
:10156600602400C1010102040302040205036504AC
:1015760066026701680269027101720173017402F1
:0815860075027602770278027B
:102AD2007F55122C4E7FAA122C4EE4FF122C4E7FF1
:102AE20004122C4EE4FF122C4EE4FF122C4E7F03F4
:032AF200022C4E65
:03001E00022C4E63
:10132200900000E0FD7F011226C3900071E0FD7F76
:10133200711226C3900087E0FFE48F2CF52BF52A6B
:10134200F5297F03121E7C9000B8E0FFB4FF05E48C
:10135200F515801EEFB4C8057515028015EFB42887
:1013620005751503800CEFB414057515048003751B
:101372001505AD157F65122871900089E0FEA3E086
:10138200FFE48F2C8E2BF52AF5297F66121E7C90A6
:10139200007CE0FD7F671226C390007FE0FFE48FB0
:1013A2002CF52BF52AF5297F68121E7CE47B107A36
:1013B20027F9F890006B120C5E120B71C374329F06
:1013C200FFE48F2CF52BF52AF5297F69121E7C7814
:1013D20077E6FD7F721226C3900065E0FFE48F2C52
:1013E200F52BF52AF5297F04121E7C900070E0FD92
:1013F2007F731226C390007DE0FEA3E0FFE48F2CF2
:101402008E2BF52AF5297F74121E7C9000A1E0FE36
:10141200A3E0FFE48F2C8E2BF52AF5297F75121E8F
:101422007C900088E0FFE48F2CF52BF52AF5297FCC
:1014320076121E7C900074120C5E8F2C8E2B8D2ADD
:101442008C297F77121E7C900078120C5E8F2C8E76
:0A1452002B8D2A8C297F78021E7C66
:102BBC00122C59900000EFF0FD7F011226C3BF01CB
:062BCC00037F01227F00DF
:012BD20022E0
:102BEA00122C62AD077F02122871BF01037F0122F6
:022BFA007F005A
:012BFC0022B6
:1020A900122C6B8F268E258D248C23055290008748
:1020B900E0FFE4FCFDFEAB26AA25A924A823C31250
:1020C9000C276032E4F552F527E52725E02478F856
:1020D900E6FA08E6FB4A601585262C85252B85241A
:1020E9002A8523298A2D8B2E7F03121A890527E534
:1020F90027C3940840D3AF26900087EFF090008E55
:10210900F01217E0900087E0FFE48F2CF52BF52AF9
:0F211900F5297F03121E7CBF01037F01227F0087
:012128002294
:1029CE00122C6B8F268E258D248C23900065EFF0B4
:1029DE001224781217E0900065E0FFE48F2CF52B9F
:1029EE00F52AF5297F04121E7CBF01037F01227F89
:0129FE0000D8
:0129FF0022B5
:102C21008C278D287F051225CCBF01037F01227FD0
:012C310000A2
:012C3200227F
:101CA000122C628F2305519000C0E0B52317E52365
:101CB000640570359000B8E0FF900088E06F6029FF
:101CC000E4F5518024E4F551F524E52425E0247859
:101CD000F8E6FA08E6FB4A6007AD237F65121B476A
:101CE0000524E524C3940840E1E523146010146042
:101CF0001514601A14601F146024240570289000C5
:101D0000B874FFF080209000B874C8F0801890007C
:101D1000B87428F080109000B87414F08008900017
:101D200088E09000B8F09000C0E523F01217E09032
:101D300000C0E0FD7F65122871BF01037F01227F93
:011D400000A2
:011D4100227F
:10202500122C6B8F268E258D248C230555900089C7
:10203500E0FEA3E0FFE4FCFDAB26AA25A924A82326
:10204500C3120C276032E4F555F527E52725E02472
:1020550078F8E6FA08E6FB4A601585262C85252BD7
:1020650085242A8523298A2D8B2E7F66121A8905B8
:1020750027E527C3940840D3900089E525F0A3E51B
:1020850026F01217E0900089E0FEA3E0FFE48F2C14
:102095008E2BF52AF5297F66121E7CBF01037F0171
:0320A500227F0097
:0120A8002215
:1024D000122C598F23055390007CE065236024E47F
:1024E000F553F524E52425E02478F8E6FA08E6FB20
:1024F0004A6007AD237F67121F9E0524E524C3941D
:102500000840E1E52390007C7003F080037401F043
:102510001217E090007CE0FD7F671226C3BF010325
:052520007F01227F0095
:012525002293
:10212900122C6B8F268E258D248C23055490007FCD
:10213900E0FFE4FCFDFEAB26AA25A924A823C312CF
:102149000C276032E4F554F527E52725E02478F8D3
:10215900E6FA08E6FB4A601585262C85252B852499
:102169002A8523298A2D8B2E7F68121A890527E54E
:1021790027C3940840D390007FE526F01217E0901A
:10218900007FE0FFE48F2CF52BF52AF5297F6812F3
:0A2199001E7CBF01037F01227F00BE
:0121A3002219
:101D4200122C6B8F268E258D248C2305579000BC78
:101D5200120C5EAB26AA25A924A823C3120C276065
:101D620032E4F557F527E52725E02478F8E6FA0866
:101D7200E6FB4A601585262C85252B85242A85239A
:101D8200298A2D8B2E7F69121A890527E527C3948C
:101D92000840D3AF26AE25AD24AC239000BC120C74
:101DA20076C374329526FFE49525FEE49524FDE47E
:101DB2009523FCE47B107A27F9F8120AE690006B6F
:101DC200120C761217E09000BC120C5E8F2C8E2B38
:101DD2008D2A8C297F69121E7CBF01037F01227F1D
:011DE2000000
:011DE30022DD
:1023BC00122C598F230556900071E065236024E49C
:1023CC00F556F524E52425E02478F8E6FA08E6FB32
:1023DC004A6007AD237F71121F9E0524E524C39428
:1023EC000840E1E5237006900071F0801190007CAC
:1023FC00E0B40104787676019000717401F09000DD
:10240C0071E0FD7F711226C3BF01037F01227F00A3
:01241C00229D
:10271200122C598F23E5237877666022E4F524E5AD
:102722002425E02478F8E6FA08E6FB4A6007AD23A0
:102732007F72121F9E0524E524C3940840E1E5231D
:1027420078777003F680027601AD237F721226C37A
:08275200BF01037F01227F009B
:01275A00225C
:102BD300122C59900070EFF0FD7F731226C3BF01D2
:062BE300037F01227F00C8
:012BE90022C9
:0616BB008B1D8A1E891F31
:1016C100EF120CCF16F001171F02172F03173F045B
:1016D100174F05175E65176D66177C67178B6817BF
:1016E1009A6917A97117B87217C773000017D8AB99
:1016F1001DAA1EA91FAD21AC20122BBC8F22E522F1
:10170100640160030217DD90009CE004F0E0C394E3
:101711000550030217DDE4F0122AD20217DDAB1DDA
:10172100AA1EA91FAD21AC20122BEA0217D4AB1DB2
:10173100AA1EA91FAD21AC201220A90217D4AB1DEE
:10174100AA1EA91FAD21AC201229CE0217D4AB1DB0
:10175100AA1EA91FAD21AC20122C218076AB1DAA97
:101761001EA91FAD21AC20121CA08067AB1DAA1EB3
:10177100A91FAD21AC201220258058AB1DAA1EA99E
:101781001FAD21AC201224D08049AB1DAA1EA91F78
:10179100AD21AC20122129803AAB1DAA1EA91FAD93
:1017A10021AC20121D42802BAB1DAA1EA91FAD2109
:1017B100AC201223BC801CAB1DAA1EA91FAD21ACFD
:1017C10020122712800DAB1DAA1EA91FAD21AC202E
:0E17D100122BD38F228000E490009CF0AF22F8
:0117DF0022E7
:032C87007F122297
:1017E0007F007E2F122AAD7F107E27122C0FE47B04
:1017F000E87A03F9F890006B120C5E120B7178080E
:10180000120C387D007C2F122A867F647E00122CF9
:101810000FE47BE87A03F9F890006B120C5E120B70
:1018200071E47D017C2F122A867F647E00122C0FCA
:101830009000B8E0FF7D027C2F122A867F647E0034
:10184000122C0F900089E0FF7D037C2F122A867FE7
:10185000647E00122C0F900089A3E0FF7D047C2F92
:10186000122A867F647E00122C0F900087E0FF7D95
:10187000057C2F122A867F647E00122C0F90007F39
:10188000E0FF7D067C2F122A867F647E00122C0FDB
:1018900090007CE0FF7D077C2F122A867F647E000B
:1018A000122C0F900065E0FF7D087C2F122A867FA6
:1018B000647E00122C0F7F807E2F122AAD7F107E57
:0F18C00027122C0F7D807C2FE4FF122A86D2AFD7
:0118CF0022F6
:0F2C33003577676671726F3400312E302E3000A6
:03158E0001580001
:1000260074482FF974003EFA7B01ED120A1A0FBFCD
:0300360000010EB8
:0100390022A4
:0628F000AF157E007BFF26
:0A28F6008E298F2A8B2B8A2C892D46
:1029000074482FF974003EFA7B01852B33852C34F3
:10291000852D35852E36852F371219B8E52F252AB6
:0B292000F52AE52E3529F529FEAF2A27
:01292B002289
:1028B3008B2F8A3089318C328D33E94A4B602DE579
:1028C3003345326027E5331533AE32700215324E8D
:1028D300601AAB2FAA30A9311209D4FF12001E745B
:0D28E300012531F531E43530F53080D92282
:0A2A31008B2F8A3089318C328D33EF
:102A3B00E4FFFDFCC3ED9533EC95325015782FE494
:102A4B0075F001120CBF1209D42FFF0DBD00010C44
:022A5B0080E217
:012A5D002256
:04261F008C2D8D2E43
:102623009000427455F0A374AAF0E4A3F0A3EFF072
:10263300E52DA3F0E52EA3F02407F52EE4352DF5C3
:102643002D7B017A007942E52E24FFFDE52D34FF31
:10265300FC122A317441252EF5827400352DF58341
:0F266300EFF07B017A007942AD2EAC2D0228B347
:042356008C718D7287
:10235A0074022572F572E43571F571900042745574
:10236A00F0A374AAF0E4A3F0A3EFF0E571A3F0E5FB
:10237A0072A3F0A374FFF0A3F074072572F572E458
:10238A003571F5717B017A007942E57224FFFDE52A
:10239A007134FFFC122A3174412572F582740035BA
:1023AA0071F583EFF07B017A007942AD72AC71026C
:0223BA0028B346
:102B1600E4FFE558700AFEFD12002675580180078D
:102B26007E007D01120026EFFD7C00E4FF02261FD9
:10296400E4F5157BFF7A2C79331225268E2E8F2FD2
:102974007A2C79331228F08F157BFF7A2C793C124C
:1029840025268E2E8F2F7A2C793C1228F08F15EF66
:08299400FD7C007F0102261FFB
:082C7300E4FDFC7F0202261FB4
:022AF5008F1C34
:102AF700122C87E4FEEEC39F501275F002EE900091
:0E2B0700C1120CB3E0651C60030E80E9AF063E
:012B1500229D
:06241D008B158A168917D9
:102423001209D4F5189000011209EDF51990000274
:102433001209ED751B00F51A9000031209ED251B17
:10244300F51BE4351AF51AAF18122AF575F002EFE9
:102453009000C2120CB3E0651960037F0022AB1534
:10246300E5172404F9E43516FA851A20851B21AFF4
:04247300181216BB6A
:012477002242
:040CF5008E0D8F0EC3
:100CF90074262FF58274003EF583E0FF120CCF0DA8
:100D090024000D27010D2A020D2D030D46040D4D5A
:100D1900060F61080DE8B400000F64022B160229C2
:100D290064022C737429250EF5827400350DF58340
:100D3900E090001FF0E4FDFC7F0302261F900022D3
:100D49007401F0227427250EF5827400350DF583A0
:100D5900E0751400F5137428250EF5827400350D1D
:100D6900F583E02514F514E43513F513E4F511F5CD
:100D790012C3E5129514E51195134003020F64E5BA
:100D89000E2512FDE50D3511FC742B2DF58274002D
:100D99003CF583E0751000F50F742C2DF582740075
:100DA9003CF583E02510F510E4350FF50F7429257E
:100DB9000EF97400350DFA7B01E92512F9EA3511AE
:100DC900FA12241DBF01031217E0E5102404FFE401
:100DD900350FFEEF2512F512EE3511F511809274DB
:100DE90027250EF5827400350DF583E0751400F59D
:100DF900137428250EF5827400350DF583E025144A
:100E0900F514E43513F513742A250EF582740035AB
:100E19000DF583E0F8E47979F7E819F7742B250ED5
:100E2900F5827400350DF583E0787926F618E436F5
:100E3900F6742C250EF5827400350DF583E0F8E47F
:100E4900797BF7E819F7742D250EF5827400350DB5
:100E5900F583E0787B26F618E436F6742E250EF530
:100E6900827400350DF583E0F8E4797DF7E819F728
:100E7900742F250EF5827400350DF583E0787D26F3
:100E8900F618E436F67430250EF5827400350DF542
:100E990083E0F8E4797FF7E819F77431250EF582D4
:100EA9007400350DF583E0787F26F618E436F6747C
:100EB90032250EF5827400350DF583E0F8E4798169
:100EC900F7E819F77433250EF5827400350DF583AB
:100ED900E0788126F618E436F67434250EF5827426
:100EE90000350DF583E0F8E47983F7E819F77435EF
:100EF900250EF5827400350DF583E0788326F61802
:100F0900E436F67436250EF5827400350DF583E066
:100F1900F8E47985F7E819F77437250EF582740036
:100F2900350DF583E0788526F618E436F67438250C
:100F39000EF5827400350DF583E0F8E47987F7E85A
:100F490019F77439250EF5827400350DF583E078AB
:0B0F59008726F618E436F62212132259
:010F6400226A
:102B5400E55C855D83855E826559700AE55B658207
:0E2B64007004E55A658360037F01227F002222
:1027A200AB5CAA5DA95EE559855A83855B82655C4F
:1027B200700AE55E65827004E55D65836028C390FA
:1027C200001FE55E9582E55D9583400D7A007900F4
:1027D200755C01755D00755E00785CE475F0011250
:0627E2000CBF1209D4FF38
:0127E80022CE
:10077D000209BFE86480F8E933E83360110460F0E2
:10078D00ED33EC337009E8FCE9FDEAFEEBFF2204E2
:10079D0060DED3EB9FEA9EE99DE8C2E78CF0C2F7DD
:1007AD0095F0400CE8CCF8E9CDF9EACEFAEBCFFBA9
:1007BD0012098A85D0F05804700320D5B3E804706F
:1007CD00075002B2D50209C992D5EC0460F7E4CC0A
:1007DD00C0E0C398F8603B94186008400DD0E0FB72
:1007ED000209A1E4FBFAC9FC8028E830E406E4C95B
:1007FD00FBE4CAFCE830E305E4C9CACBFCE85407C6
:10080D006010F8C3E913F9EA13FAEB13FBEC13FCD0
:10081D00D8F130F52FC3E49CFCEF9BFFEE9AFEED73
:10082D0099FDD0E0FBEF4E4D4C701222DB03020917
:10083D00C6EC2CFCEF33FFEE33FEED33FDED30E770
:10084D00EB0209A1EF2BFFEE3AFEED39FDD0E0FBF7
:10085D0050130BBB00030209C9ED13FDEE13FEEFA0
:08086D0013FFEC13FC0209A1CA
:100875000209C9EC5D046005E8590470030209BF6B
:1008850012098A580460F6EC4860F2EC7004FDFE2B
:10089500FF22C860DB2481C85009C3986002500656
:1008A5000209C69850CAF582E9294B4A7005AB8200
:1008B5000209B575F0007C1A7880C3EF9BEE9AEDBE
:1008C50099400DC3EF9BFFEE9AFEED99FDE842F0CE
:1008D500DC23ACF0D0E0FFD0E0FED0E0FDAB822021
:1008E500E7101BEB60BAEC2CFCEF33FFEE33FEEDAB
:1008F50033FD0209A1E803F830E705C0F075F00003
:10090500EF2FFFEE33FEED33FD40B830E7C280AA8E
:1009150075F020800E75F010800575F0087D007E5D
:10092500007F003392D530D503120C03EC33401011
:10093500EF33FFEE33FEED33FDEC33FCD5F0ED2266
:0E094500E5F0247EA2D513CC92E7CDCEFF22A2
:10095300EDD2E7CD33EC3392D524814006E4FFFE9C
:10096300FDFC22FCE4CFCECDCC24E0501174FF80FB
:10097300EDC3CC13CCCD13CDCE13CECF13CF047098
:07098300F030D5DE020C0389
:10098A00E9D2E7C933E833F892D5EDD2E7CD33ECB3
:07099A0033FC5002B2D5222C
:1009A100EC30E7100FBF000C0EBE00080DBD0004B7
:1009B1000BEB6014A2D5EB13FCED92E7FD2274FF63
:1009C100FCFDFEFF22E480F8A2D574FF13FC7D80BC
:0309D100E480EFD0
:101F1E00020F65E493A3F8E493A34003F68001F265
:101F2E0008DFF48029E493A3F85407240CC8C333C4
:101F3E00C4540F4420C8834004F456800146F6DF93
:101F4E00E4800B010204081020408090145CE47EB3
:101F5E00019360BCA3FF543F30E509541FFEE49388
:101F6E00A360010ECF54C025E060A840B8E493A34F
:101F7E00FAE493A3F8E493A3C8C582C8CAC583CA7A
:101F8E00F0A3C8C582C8CAC583CADFE9DEE780BE32
:011591000059
:1009D400BB010689828A83E0225002E722BBFE0221
:0909E400E32289828A83E4932254
:1009ED00BB010CE58229F582E5833AF583E02250BF
:1009FD0006E92582F8E622BBFE06E92582F8E22209
:0D0A0D00E58229F582E5833AF583E4932222
:100A1A00BB010689828A83F0225002F722BBFE01BB
:020A2A00F322B5
:100A2C00F8BB010DE58229F582E5833AF583E8F000
:100A3C00225006E92582C8F622BBFE05E92582C8AC
:020A4C00F22294
:100A4E00EF8DF0A4A8F0CF8CF0A428CE8DF0A42EBC
:020A5E00FE2276
:100A6000BC000BBE0029EF8DF084FFADF022E4CC7A
:100A7000F875F008EF2FFFEE33FEEC33FCEE9DEC43
:100A8000984005FCEE9DFE0FD5F0E9E4CEFD22ED89
:100A9000F8F5F0EE8420D21CFEADF075F008EF2FD3
:100AA000FFED33FD4007985006D5F0F222C398FDC4
:050AB0000FD5F0EA2261
:100AB500C5F0F8A3E028F0C5F0F8E58215827002CC
:060AC5001583E038F02269
:0D0ACB00EF2BFFEE3AFEED39FDEC38FC227A
:0E0AD800C3EF9BFFEE9AFEED99FDEC98FC2219
:100AE600E88FF0A4CC8BF0A42CFCE98EF0A42CFCAF
:100AF6008AF0EDA42CFCEA8EF0A4CDA8F08BF0A42D
:100B06002DCC3825F0FDE98FF0A42CCD35F0FCEB8B
:100B16008EF0A4FEA9F0EB8FF0A4CFC5F02ECD3950
:0F0B2600FEE43CFCEAA42DCE35F0FDE43CFC22BD
:100B350075F008758200EF2FFFEE33FECD33CDCC77
:100B450033CCC58233C5829BED9AEC99E5829840FA
:100B55000CF582EE9BFEED9AFDEC99FC0FD5F0D6D7
:100B6500E4CEFBE4CDFAE4CCF9A88222B800C1B901
:100B75000059BA002DEC8BF084CFCECDFCE5F0CB3F
:100B8500F97818EF2FFFEE33FEED33FDEC33FCEB78
:100B950033FB10D703994004EB99FB0FD8E5E4F933
:100BA500FA227818EF2FFFEE33FEED33FDEC33FC20
:100BB500C933C910D7059BE99A4007EC9BFCE99A14
:100BC500F90FD8E0E4C9FAE4CCFB2275F010EF2F59
:100BD500FFEE33FEED33FDCC33CCC833C810D70759
:100BE5009BEC9AE899400AED9BFDEC9AFCE899F894
:0E0BF5000FD5F0DAE4CDFBE4CCFAE4C8F92227
:0E0C0300C3E49FFFE49EFEE49DFDE49CFC2202
:100C1100EB9FF5F0EA9E42F0E99D42F0EC6480C85A
:060C210064809845F022FA
:100C2700EB9FF5F0EA9E42F0E99D42F0E89C45F023
:010C3700229A
:100C3800E8600FECC313FCED13FDEE13FEEF13FF9A
:030C4800D8F122BE
:100C4B00E8600FEFC333FFEE33FEED33FDEC33FC07
:030C5B00D8F122AB
:0C0C5E00E0FCA3E0FDA3E0FEA3E0FF2209
:0C0C6A00E0F8A3E0F9A3E0FAA3E0FB220D
:0C0C7600ECF0A3EDF0A3EEF0A3EFF022F1
:100C8200A8828583F0D083D082120C99120C99121B
:100C92000C99120C99E473E493A3C583C5F0C58340
:100CA200C8C582C8F0A3C583C5F0C583C8C582C8BC
:010CB200221F
:0C0CB300A42582F582E5F03583F583224C
:100CBF00FAE6FB0808E6F925F0F618E6CA3AF62236
:100CCF00D083D082F8E4937012740193700DA3A3B4
:100CDF0093F8740193F5828883E4737402936860C8
:060CEF00EFA3A3A380DFC8
:00000001FF
